:10000000183A00202D9601009DF600009DF6000094
:100010009DF600009DF600009DF600009DF6000094
:100020009DF600009DF600009DF600009DF6000084
:0C0030009DF600009DF6000069F600003F
:1000400081F0004102E000BF83F0004330B54FEA89
:1000500041044FEA430594EA050F08BF90EA020FF6
:100060001FBF54EA000C55EA020C7FEA645C7FEA89
:10007000655C00F0E2804FEA5454D4EB5555B8BFAC
:100080006D420CDD2C4480EA020281EA030382EA1D
:10009000000083EA010180EA020281EA0303362DAF
:1000A00088BF30BD11F0004F4FEA01314FF4801C82
:1000B0004CEA113102D0404261EB410113F0004F94
:1000C0004FEA03334CEA133302D0524263EB43034B
:1000D00094EA050F00F0A780A4F10104D5F1200EE9
:1000E0000DDB02FA0EFC22FA05F2801841F1000144
:1000F00003FA0EF2801843FA05F359410EE0A5F118
:1001000020050EF1200E012A03FA0EFC28BF4CF048
:10011000020C43FA05F3C01851EBE37101F00045FE
:1001200007D54FF0000EDCF1000C7EEB00006EEB0B
:100130000101B1F5801F1BD3B1F5001F0CD3490895
:100140005FEA30004FEA3C0C04F101044FEA4452EC
:1001500012F5800F80F09A80BCF1004F08BF5FEA73
:10016000500C50F1000041EB045141EA050130BD53
:100170005FEA4C0C404141EB010111F4801FA4F1F6
:100180000104E9D191F0000F04BF01460020B1FA4B
:1001900081F308BF2033A3F10B03B3F120020CDA83
:1001A0000C3208DD02F1140CC2F10C0201FA0CF061
:1001B00021FA02F10CE002F11402D8BFC2F1200CC6
:1001C00001FA02F120FA0CFCDCBF41EA0C0190407C
:1001D000E41AA2BF01EB0451294330BD6FEA0404C5
:1001E0001F3C1CDA0C340EDC04F11404C4F12002B0
:1001F00020FA04F001FA02F340EA030021FA04F3C2
:1002000045EA030130BDC4F10C04C4F1200220FA18
:1002100002F001FA04F340EA0300294630BD21FA56
:1002200004F0294630BD94F0000F83F4801306BF1C
:1002300081F480110134013D4EE77FEA645C18BF10
:100240007FEA655C29D094EA050F08BF90EA020FA7
:1002500005D054EA000C04BF1946104630BD91EA9F
:10026000030F1EBF0021002030BD5FEA545C05D1A2
:100270004000494128BF41F0004130BD14F58004E1
:100280003CBF01F5801130BD01F0004545F0FE4155
:1002900041F470014FF0000030BD7FEA645C1ABF8A
:1002A000194610467FEA655C1CBF0B46024650EAC1
:1002B000013406BF52EA033591EA030F41F40021ED
:1002C00030BD00BF90F0000F04BF0021704730B573
:1002D0004FF4806404F132044FF000054FF0000148
:1002E00050E700BF90F0000F04BF0021704730B509
:1002F0004FF4806404F1320410F0004548BF4042DE
:100300004FF000013EE700BF42004FEAE2014FEA32
:1003100031014FEA02701FBF12F07F4393F07F4F0D
:1003200081F06051704792F0000F14BF93F07F4F3F
:10033000704730B54FF4607401F0004521F0004182
:1003400020E700BF50EA010208BF704730B54FF008
:1003500000050AE050EA010208BF704730B511F00D
:10036000004502D5404261EB41014FF4806404F145
:1003700032045FEA915C3FF4DCAE4FF003025FEAC7
:10038000DC0C18BF03325FEADC0C18BF033202EB4F
:10039000DC02C2F1200300FA03FC20FA02F001FAA9
:1003A00003FE40EA0E0021FA02F11444C1E600BF48
:1003B00070B54FF0FF0C4CF4E06C1CEA11541DBFFB
:1003C0001CEA135594EA0C0F95EA0C0F00F0DEF8C6
:1003D0002C4481EA030621EA4C5123EA4C5350EAAB
:1003E000013518BF52EA033541F4801143F48013FC
:1003F00038D0A0FB02CE4FF00005E1FB02E506F08D
:100400000042E0FB03E54FF00006E1FB03569CF0E1
:10041000000F18BF4EF0010EA4F1FF04B6F5007FE7
:1004200064F5407404D25FEA4E0E6D4146EB060659
:1004300042EAC62141EA55514FEAC52040EA5E50E2
:100440004FEACE2EB4F1FD0C88BFBCF5E06F1ED88C
:10045000BEF1004F08BF5FEA500E50F1000041EBC3
:10046000045170BD06F0004646EA010140EA020070
:1004700081EA0301B4EB5C04C2BFD4EB0C0541EA92
:10048000045170BD41F480114FF0000E013C00F3A7
:10049000AB8014F1360FDEBF002001F0004170BDCB
:1004A000C4F10004203C35DA0C341BDC04F11404E4
:1004B000C4F1200500FA05F320FA04F001FA05F270
:1004C00040EA020001F0004221F0004110EBD3703D
:1004D00021FA04F642EB06015EEA430E08BF20EA69
:1004E000D37070BDC4F10C04C4F1200500FA04F30C
:1004F00020FA05F001FA04F240EA020001F000419E
:1005000010EBD37041F100015EEA430E08BF20EA10
:10051000D37070BDC4F1200500FA05F24EEA020E58
:1005200020FA04F301FA05F243EA020321FA04F087
:1005300001F0004121FA04F220EA020000EBD3703E
:100540005EEA430E08BF20EAD37070BD94F0000F3E
:100550000FD101F00046400041EB010111F4801F72
:1005600008BF013CF7D041EA060195F0000F18BF23
:10057000704703F00046520043EB030313F4801F5F
:1005800008BF013DF7D043EA0603704794EA0C0F19
:100590000CEA135518BF95EA0C0F0CD050EA41062F
:1005A00018BF52EA4306D1D181EA030101F00041AC
:1005B0004FF0000070BD50EA410606BF10461946D4
:1005C00052EA430619D094EA0C0F02D150EA0136E0
:1005D00013D195EA0C0F05D152EA03361CBF104621
:1005E00019460AD181EA030101F0004141F0FE41C0
:1005F00041F470014FF0000070BD41F0FE4141F444
:10060000780170BD70B54FF0FF0C4CF4E06C1CEA43
:1006100011541DBF1CEA135594EA0C0F95EA0C0FF8
:1006200000F0A7F8A4EB050481EA030E52EA0335B3
:100630004FEA013100F088804FEA03334FF08055D4
:1006400045EA131343EA12634FEA022245EA111501
:1006500045EA10654FEA00260EF000419D4208BFB2
:10066000964244F1FD0404F5407402D25B084FEA5F
:100670003202B61A65EB03055B084FEA32024FF40B
:1006800080104FF4002CB6EB020E75EB030E22BF68
:10069000B61A754640EA0C005B084FEA3202B6EB28
:1006A000020E75EB030E22BFB61A754640EA5C00D7
:1006B0005B084FEA3202B6EB020E75EB030E22BF67
:1006C000B61A754640EA9C005B084FEA3202B6EB68
:1006D000020E75EB030E22BFB61A754640EADC0027
:1006E00055EA060E18D04FEA051545EA16754FEA89
:1006F00006164FEAC30343EA52734FEAC2025FEAA7
:100700001C1CC0D111F4801F0BD141EA00014FF035
:1007100000004FF0004CB6E711F4801F04BF014306
:100720000020B4F1FD0C88BFBCF5E06F3FF6AFAE22
:10073000B5EB030C04BFB6EB020C5FEA500C50F1B2
:10074000000041EB045170BD0EF0004E4EEA113135
:1007500014EB5C04C2BFD4EB0C0541EA045170BD3C
:1007600041F480114FF0000E013C90E645EA060E80
:100770008DE60CEA135594EA0C0F08BF95EA0C0FAE
:100780003FF43BAF94EA0C0F0AD150EA01347FF4F6
:1007900034AF95EA0C0F7FF425AF104619462CE7CD
:1007A00095EA0C0F06D152EA03353FF4FDAE104630
:1007B000194622E750EA410618BF52EA43067FF481
:1007C000C5AE50EA41047FF40DAF52EA43057FF411
:1007D000EBAE12E74FF0FF3C06E000BF4FF0010C1C
:1007E00002E000BF4FF0010C4DF804CD4FEA410C80
:1007F0007FEA6C5C4FEA430C18BF7FEA6C5C1BD04D
:1008000001B050EA410C0CBF52EA430C91EA030FCD
:1008100002BF90EA020F0020704710F1000F91EA2A
:10082000030F58BF994208BF90422CBFD8176FEAF8
:10083000E37040F0010070474FEA410C7FEA6C5CC6
:1008400002D150EA013C07D14FEA430C7FEA6C5CCD
:10085000D6D152EA033CD3D05DF8040B704700BFF9
:100860008446104662468C461946634600E000BF47
:1008700001B5FFF7B7FF002848BF10F1000F01BD19
:100880004DF808EDFFF7F4FF0CBF012000205DF8E4
:1008900008FB00BF4DF808EDFFF7EAFF34BF012069
:1008A00000205DF808FB00BF4DF808EDFFF7E0FF02
:1008B00094BF012000205DF808FB00BF4DF808ED53
:1008C000FFF7CEFF94BF012000205DF808FB00BFBA
:1008D0004DF808EDFFF7C4FF34BF012000205DF89C
:1008E00008FB00BF4FEA410212F5001215D211D5E4
:1008F0006FF47873B3EB625212D94FEAC12343F01D
:10090000004343EA505311F0004F23FA02F018BF9E
:10091000404270474FF00000704750EA013005D167
:1009200011F0004008BF6FF0004070474FF000002A
:10093000704700BF4A0011D212F5001211D20DD536
:100940006FF47873B3EB62520ED44FEAC12343F0D5
:10095000004343EA505323FA02F070474FF000007F
:10096000704750EA013002D14FF0FF3070474FF02E
:10097000000070474FEA4102B2F1E04324BFB3F5F3
:10098000001CDCF1FE5C0DD901F0004C4FEAC00206
:100990004CEA5070B2F1004F40EB830008BF20F0EA
:1009A0000100704711F0804F21D113F13872BCBFA4
:1009B00001F00040704741F480114FEA5252C2F1F9
:1009C0001802C2F1200C10FA0CF320FA02F018BF42
:1009D00040F001004FEAC1234FEAD32303FA0CFC95
:1009E00040EA0C0023FA02F34FEA4303CCE77FEA24
:1009F000625307D150EA01331EBF4FF0FE4040F46E
:100A00004000704701F0004040F0FE4040F400001C
:100A1000704700BF80F0004002E000BF81F000415D
:100A200042001FBF5FEA410392EA030F7FEA226C94
:100A30007FEA236C6AD04FEA1262D2EB1363C1BF24
:100A4000D218414048404140B8BF5B42192B88BF93
:100A5000704710F0004F40F4000020F07F4018BFB6
:100A6000404211F0004F41F4000121F07F4118BFD6
:100A7000494292EA030F3FD0A2F1010241FA03FC7E
:100A800010EB0C00C3F1200301FA03F100F0004366
:100A900002D5494260EB4000B0F5000F13D3B0F12E
:100AA000807F06D340084FEA310102F10102FE2A9D
:100AB00051D2B1F1004F40EBC25008BF20F001000D
:100AC00040EA03007047490040EB000010F4000FBB
:100AD000A2F10102EDD1B0FA80FCACF1080CB2EB4E
:100AE0000C0200FA0CF0AABF00EBC25052421843AD
:100AF000BCBFD0401843704792F0000F81F4000152
:100B000006BF80F400000132013BB5E74FEA410324
:100B10007FEA226C18BF7FEA236C21D092EA030F90
:100B200004D092F0000F08BF0846704790EA010F0A
:100B30001CBF0020704712F07F4F04D1400028BF37
:100B400040F00040704712F100723CBF00F5000019
:100B5000704700F0004343F0FE4040F4000070474F
:100B60007FEA226216BF08467FEA236301464202FB
:100B700006BF5FEA412390EA010F40F4800070470E
:100B80004FF0000304E000BF10F0004348BF4042B4
:100B90005FEA000C08BF704743F0964301464FF0F0
:100BA00000001CE050EA010208BF70474FF000034C
:100BB0000AE000BF50EA010208BF704711F000438D
:100BC00002D5404261EB41015FEA010C02BF84465D
:100BD0000146002043F0B64308BFA3F18053A3F5BC
:100BE0000003BCFA8CF2083AA3EBC25310DB01FA03
:100BF00002FC634400FA02FCC2F12002BCF1004F87
:100C000020FA02F243EB020008BF20F00100704717
:100C100002F1200201FA02FCC2F1200250EA4C006B
:100C200021FA02F243EB020008BF20EADC707047B1
:100C30004FF0FF0C1CEAD0521EBF1CEAD15392EABF
:100C40000C0F93EA0C0F6FD01A4480EA010C40029B
:100C500018BF5FEA41211ED04FF0006343EA5010F5
:100C600043EA5111A0FB01310CF00040B1F5000F37
:100C70003EBF490041EAD3715B0040EA010062F1E6
:100C80007F02FD2A1DD8B3F1004F40EBC25008BFD0
:100C900020F00100704790F0000F0CF0004C08BFEE
:100CA00049024CEA502040EA51207F3AC2BFD2F1BB
:100CB000FF0340EAC250704740F400004FF00003C9
:100CC000013A5DDC12F1190FDCBF00F00040704703
:100CD000C2F10002410021FA02F1C2F1200200FA41
:100CE00002FC5FEA310040F1000053EA4C0308BF08
:100CF00020EADC70704792F0000F00F0004C02BF59
:100D0000400010F4000F013AF9D040EA0C0093F0D3
:100D1000000F01F0004C02BF490011F4000F013B2D
:100D2000F9D041EA0C018FE70CEAD15392EA0C0F9B
:100D300018BF93EA0C0F0AD030F0004C18BF31F006
:100D4000004CD8D180EA010000F00040704790F0DC
:100D5000000F17BF90F0004F084691F0000F91F080
:100D6000004F14D092EA0C0F01D142020FD193EA46
:100D70000C0F03D14B0218BF084608D180EA0100CE
:100D800000F0004040F0FE4040F40000704740F0AA
:100D9000FE4040F4400070474FF0FF0C1CEAD05278
:100DA0001EBF1CEAD15392EA0C0F93EA0C0F69D0D4
:100DB000A2EB030280EA010C49024FEA402037D03F
:100DC0004FF0805343EA111143EA10130CF0004036
:100DD0008B4238BF5B0042F17D024FF4000C8B4226
:100DE00024BF5B1A40EA0C00B3EB510F24BFA3EB06
:100DF000510340EA5C00B3EB910F24BFA3EB9103D6
:100E000040EA9C00B3EBD10F24BFA3EBD10340EA2F
:100E1000DC001B0118BF5FEA1C1CE0D1FD2A3FF675
:100E200050AF8B4240EBC25008BF20F0010070472A
:100E30000CF0004C4CEA50207F32C2BFD2F1FF03CD
:100E400040EAC250704740F400004FF00003013AFE
:100E500037E792F0000F00F0004C02BF400010F4A2
:100E6000000F013AF9D040EA0C0093F0000F01F0B6
:100E7000004C02BF490011F4000F013BF9D041EAD8
:100E80000C0195E70CEAD15392EA0C0F08D142020B
:100E90007FF47DAF93EA0C0F7FF470AF084676E7DE
:100EA00093EA0C0F04D14B023FF44CAF08466EE7B7
:100EB00030F0004C18BF31F0004CCAD130F0004285
:100EC0007FF45CAF31F000437FF43CAF5FE700BFDD
:100ED0004FF0FF3C06E000BF4FF0010C02E000BF06
:100EE0004FF0010C4DF804CD4FEA40024FEA4103A8
:100EF0007FEA226C18BF7FEA236C11D001B052EA5E
:100F0000530C18BF90EA010F58BFB2EB030088BF23
:100F1000C81738BF6FEAE17018BF40F00100704792
:100F20007FEA226C02D15FEA402C05D17FEA236C74
:100F3000E4D15FEA412CE1D05DF8040B704700BFBB
:100F4000844608466146FFE70FB5FFF7C9FF002852
:100F500048BF10F1000F0FBD4DF808EDFFF7F4FF8B
:100F60000CBF012000205DF808FB00BF4DF808ED24
:100F7000FFF7EAFF34BF012000205DF808FB00BF47
:100F80004DF808EDFFF7E0FF94BF012000205DF869
:100F900008FB00BF4DF808EDFFF7D2FF94BF01201A
:100FA00000205DF808FB00BF4DF808EDFFF7C8FF13
:100FB00034BF012000205DF808FB00BF4FEA40026B
:100FC000B2F1FE4F0FD34FF09E03B3EB12620DD977
:100FD0004FEA002343F0004310F0004F23FA02F0E1
:100FE00018BF404270474FF00000704712F1610F88
:100FF00001D1420205D110F0004008BF6FF000405F
:1010000070474FF00000704742000ED2B2F1FE4F21
:101010000BD34FF09E03B3EB126209D44FEA0023C7
:1010200043F0004323FA02F070474FF0000070478E
:1010300012F1610F01D1420202D14FF0FF3070472F
:101040004FF00000704700BF73B96AB9002908BFAC
:101050000028BCBF00204FF00041C4BF6FF000412A
:101060004FF0FF3000F064B882B0EC462DE900503C
:1010700000F02EF8DDF804E002B00CBC704700BFB1
:101080004BB942B9002908BF002802D04FF0FF3108
:10109000084600F04DB882B0EC462DE9005000F053
:1010A0002FF8DDF804E002B00CBC704710B4002249
:1010B000064C134620FA03F1C9B2615C0833202BB9
:1010C0000A44F7D110465DF8044B7047789601004A
:1010D0002DE9704F089E14461D468046894600F053
:1010E00029F804FB01F3A4FB00AB00FB0532934499
:1010F000B8EB0A0869EB0B09C6E90089BDE8708FF7
:101100002DE9704F089E14461D468046894600F022
:1011100061F900FB05F5A0FB04AB04FB0154A344FB
:10112000B8EB0A0869EB0B09C6E90089BDE8708FC6
:10113000704700BF00292DE9F00FC0F2A180002404
:10114000002BC0F29880154606460F46002B3FD173
:101150008A4258D9B2FA82F34BB1C3F1200201FAA4
:1011600003F720FA02F29D4000FA03F61743290C18
:10117000B7FBF1F201FB1277A8B200FB02F34FEAD2
:10118000164C4CEA0747BB4209D97F1902F1FF3CD4
:1011900080F00581BB4240F20281023A2F44FF1ADF
:1011A000B7FBF1F301FB137100FB03F0B6B246EAA3
:1011B0000141884208D9491903F1FF3780F0F180D5
:1011C000884240F2EE80023B43EA0242002303E001
:1011D0008B420AD900231A461046194614B14042E0
:1011E00061EB4101BDE8F00F7047B3FA83F8B8F145
:1011F000000F40F088808B4202D3824200F2E280EE
:1012000000230122E8E712B90123B3FBF2F5B5FA96
:1012100085F2002A3AD17F1B280C1FFA85FC012396
:10122000B7FBF0F100FB11770CFB01F24FEA164817
:1012300048EA0747BA4207D97F1901F1FF3802D2BD
:10124000BA4200F2C4804146BF1AB7FBF0F200FB7D
:1012500012700CFB02FCB6B246EA0040844507D986
:10126000401902F1FF3702D2844500F2AE803A46BF
:1012700042EA0142B0E7E443524263EB430362E7D0
:10128000404261EB41014FF0FF3459E79540C2F114
:10129000200927FA09F126FA09F99740280CB1FB31
:1012A000F0F800FB18111FFA85FC0CFB08F349EA63
:1012B00007094FEA194747EA01418B4206FA02F64D
:1012C00008D9491908F1FF327AD28B4278D9A8F1AE
:1012D00002082944C91AB1FBF0F300FB13170CFBF9
:1012E00003F21FFA89F949EA0747BA4207D97F1979
:1012F00003F1FF3160D2BA425ED9023B2F44BF1ADC
:1013000043EA08438CE7C8F1200225FA02F103FA08
:1013100008FC27FA02F320FA02F207FA08F741EA7A
:101320000C0C4FEA1C49B3FBF9F109FB11331FFA0E
:101330008CFA0AFB01FB17433A0C42EA03439B4534
:1013400005FA08F008D913EB0C0301F1FF3235D28E
:101350009B4533D902396344CBEB0303B3FBF9F26A
:1013600009FB12330AFB02FABFB247EA0347BA4548
:1013700008D917EB0C0702F1FF331BD2BA4519D974
:10138000023A674442EA0145A5FB0001CAEB0707A0
:101390008F424FF000030AD305D02A461CE762466D
:1013A000FDE63B4610E706FA08F68642F5D26A1ECD
:1013B000002311E71A46E5E70B46A0E71146CBE705
:1013C000904687E74346424606E7023A50E702392D
:1013D0002F4439E72DE9F00F144605460E46002B41
:1013E00043D18A4253D9B2FA82F757B1C7F12006E6
:1013F00020FA06F601FA07F302FA07F400FA07F5F5
:101400001E43210CB6FBF1F201FB1266A0B200FBF9
:1014100002F32F0C47EA0646B34209D9361902F106
:10142000FF3780F0FD80B34240F2FA80023A264452
:10143000F61AB6FBF1F301FB136100FB03F0ADB24A
:1014400045EA0141884208D9091903F1FF3680F0C5
:10145000E980884240F2E680023B43EA02420023F0
:1014600010461946BDE8F00F70478B424CD8B3FACE
:1014700083F6002E4FD18B4202D3824200F2DD80F0
:10148000BDE8F00F0023012210461946704712B93B
:101490000124B4FBF2F4B4FA84F2002A40F0828012
:1014A000091B260CA7B20123B1FBF6F006FB1011B5
:1014B00007FB00F24FEA154C4CEA01418A4207D97A
:1014C000091900F1FF3C02D28A4200F2C88060464E
:1014D000891AB1FBF6F206FB121107FB02F7ADB257
:1014E00045EA0145AF4208D92C1902F1FF3180F0DD
:1014F0009B80A74240F29880023A42EA004210469E
:101500001946BDE8F00F704700231A4610461946E9
:10151000BDE8F00F7047C6F1200522FA05F703FA7F
:1015200006F421FA05F301FA06FB20FA05F53C431F
:101530004FEA1448B3FBF8FC08FB1C331FFA84F98C
:1015400009FB0CFA45EA0B0B4FEA1B4545EA03433E
:101550009A4502FA06F204D91B190CF1FF356FD334
:10156000AC46CAEB0303B3FBF8F508FB153309FBE4
:1015700005F91FFA8BFB4BEA0347B94504D93F191C
:1015800005F1FF3362D31D4645EA0C4CACFB022348
:10159000C9EB07079F424FF000054AD346D0624689
:1015A0002B465DE79440C2F1200921FA09FC9140E5
:1015B00020FA09F9260CBCFBF6F806FB18CCA7B2FA
:1015C00007FB08F349EA01094FEA194141EA0C4CCB
:1015D000634500FA02F509D91CEB040C08F1FF324F
:1015E0003BD2634539D9A8F10208A444C3EB0C0CE3
:1015F000BCFBF6F306FB13C107FB03F21FFA89F9E4
:1016000049EA01418A4207D9091903F1FF3022D280
:101610008A4220D9023B2144891A43EA084343E71E
:101620003A4605E7334618E70A4666E7B040904277
:10163000B5D20CF1FF32002312E7334632460FE7F2
:101640009A458DD9ACF1020C23448AE7B9459AD961
:10165000023D274498E70346DEE79046C6E7023896
:10166000214435E7844641EA000313F0030349D1DE
:10167000403A23D30B6803604B6843608B688360F8
:10168000CB68C3600B6903614B6943618B698361FC
:10169000CB69C3610B6A03624B6A43628B6A8362E4
:1016A000CB6AC3620B6B03634B6B43638B6B8363CC
:1016B000CB6BC36340304031403ADBD230320BD386
:1016C0000B6803604B6843608B688360CB68C360C2
:1016D00010301031103AF3D20C3205D351F8043BDC
:1016E00040F8043B043AF9D2043208D0D2071CBFB8
:1016F00011F8013B00F8013B01D30B8803806046E1
:10170000704700BF082A13D38B07B1D010F0030332
:10171000AED0C3F10403D21ADB071CBF11F8013BA2
:1017200000F8013BA4D331F8023B20F8023B9FE7CD
:10173000043AD9D3013A11F8013B00F8013BF9D240
:101740000B7803704B7843708B78837060467047DA
:1017500080EA010C1CF0030F37D110F0030C20F0CD
:10176000030021F0030150F8042B08BF51F8043B9B
:101770000ED08CF0030C6FF07F434FEACC0C23FAB1
:101780000CFC51F8043B42EA0C0243EA0C0300BF94
:10179000A2F1013C9A4201BF2CEA020C1CF0803FEE
:1017A00050F8042B51F8043BF2D04FEA02604FEAA4
:1017B0001222012828BFB0EB036F08BF1B0AF4D028
:1017C00003F0FF03000EC01A704710F0030F0AD099
:1017D00010F8012B11F8013B012A28BF9A42F4D0DE
:1017E000A2EB030070474DF8045D50F8042B01F0A4
:1017F000030521F0030151F8043B022D26D04DD8FA
:1018000022F07F45B5EB132FA2F1013C2CEA020C2C
:101810000DD11CF0803C08BF51F8043B0AD185EA89
:101820000205B5EB036F0CD150F8042BE8E74FEA43
:1018300013235BE03CF07F4C54D10B784FEA1265E8
:1018400054E04FEA126503F0FF034FE04FEA024510
:10185000A2F1013C4FEA15452CEA020CB5EB134FFF
:1018600018D11CF0803C08BF51F8043B07D185EA31
:101870000205B5EB034F09D150F8042BE6E75FEA08
:101880000C4C2FD10B884FEA12452FE04FEA03434F
:101890004FEA12454FEA134328E000BF02F0FF056C
:1018A000B5EB136FA2F1013C2CEA020C0DD11CF038
:1018B000803C08BF51F8043B0AD185EA0205B5EB2C
:1018C000032F0AD150F8042BE8E74FEA13630DE029
:1018D00012F0FF0F06D051F8043B4FEA122523F017
:1018E0007F4303E04FF0000020BC704705F0FF028B
:1018F00003F0FF00012828BF904204BF2D0A1B0AF5
:10190000F4D0A2EB000020BC704700BF08B505482A
:1019100007F040FA044807F03EFABDE808400348E3
:1019200007F03FBA44180020101800205C1800206F
:10193000F0B5184CB525F22A28BFF2222570622591
:101940006570E170951D0021D61DA0706171227136
:1019500002206155A15521460F5C4C5D01303C448D
:10196000E4B24C558F5D06283C448C55F4D10020E0
:1019700090420BDA1C5C0F18BC714F5D01303C4487
:10198000E4B24C558F5D3C448C55F1E702F1080000
:10199000C0B2F0BD6C1800202DE9F3473B4D2B6819
:1019A0002E4683BB3A4C94F84C3063B394F84D30D8
:1019B0004BB304F14C0003F07DFE824604F14C0071
:1019C00003F082FE814604F14C0003F08BFE0746D3
:1019D00004F13C0003F065FE064604F13C0003F010
:1019E00054FE804604F13C0003F043FE494601905A
:1019F0003A4650463346CDF8008003F0D9FB09F053
:101A00008BF828603FE009F087F833684EF66022D3
:101A1000C01A904237D91E4C94F84C30002B32D06B
:101A200094F84D307BB309F077F8A36DC01AB0F588
:101A30007A7F28D804F14C0003F03CFE814604F183
:101A40004C0003F041FE804604F14C0003F04AFED6
:101A5000064604F13C0003F024FE054604F13C0078
:101A600003F013FE074604F13C0003F002FE2B4690
:101A70000190414648463246009703F099FB09F031
:101A80004BF8024B186002B0BDE8F08768180020E0
:101A90006C190020014803F0A3BB00BF6C190020A3
:101AA00070B52E4807F0F2F900282C4804DC07F046
:101AB000EDF9002803DD294807F021FA0DE0284C54
:101AC00023685B6E002B47D09B699847002800DC99
:101AD00070BD23685B6EDB6998470446631CE0D0E9
:101AE000204614F01BFC18B90D2C01D00A2CD8D1BB
:101AF0001C4E1D4D3368E1B21C48E95403F070FFE1
:101B00001B4B2A461B681B7A13F0010F17D0316854
:101B10006B5C0D2B13D190B10B1F002B0FDBD05C36
:101B200024280AD1104818444478472C05D1C91AF2
:101B30000131012200F0BAFA01E0013BEDE7336820
:101B4000EA5C0A2A01D0F92B02D100233360A8E70E
:101B5000044A01331360A4E770BD00BF542900207C
:101B6000941C0020641A00206C1800206C190020BE
:101B7000A005002037B506238DF804308DF8050048
:101B800008F0CAFF012105460222052001ABFFF73C
:101B9000CFFE002408F0C0FF401BB0F5FA6F12D84A
:101BA0000A4807F073F90028F4D0084807F0A7F9AD
:101BB000074BC0B21B5D8342EBD10134E4B2092C68
:101BC000E8D9012000E0002003B030BD54290020F6
:101BD0006C18002038B505460024AC4206DA044BE8
:101BE0000448195D07F02BF90134F6E738BD00BF52
:101BF0006C180020542900207FB5A04B4FF41650DC
:101C00001B680024DB6D984708F086FF05469C485A
:101C100007F00EF908F080FF40F6B733401B9842FA
:101C200017D8974807F032F900280CDD944807F0E0
:101C300066F9C0B2242801D14CB103E0242C01D1B3
:101C4000472808D00024012008F0A2FF20460446BF
:101C5000E0E700200FE18B4B1B78033B012B00F2E8
:101C6000CA8008F059FF00220646042113460A20C4
:101C7000FFF75EFEFFF7AEFF08F04EFF801BB0F5EA
:101C8000FA6F80F0AF807E4807F000F90028F3D0AB
:101C90007B4807F034F97C4AC3B211780829EBD8A5
:101CA000DFE801F00509121A273447616700B52BF8
:101CB000E2D1012302E0622B02D102231370DBE7A1
:101CC000B52BD9D00023F9E770490B8070490B7010
:101CD00070490B700323F1E76F490B806C4908785A
:101CE0000344DBB20B706B49087803440B70042388
:101CF000E4E76A490B80664908780344DBB20B705D
:101D00006449087803440B700523D7E763490888C2
:101D100000EB032008806249002008605C490878D5
:101D20000344DBB20B705B49087803440B70062355
:101D3000C4E7574908781844C0B2087055490C7870
:101D40002044574C08702168F92903D8481C2060AA
:101D50005448435451490B88013B9BB20B80002BE4
:101D60008AD10723AAE74A4909789942AAD10823C8
:101D7000A4E7484900200978107099427FF47CAFAD
:101D8000424B1B880A2B7FF477AF434B1D88042DF1
:101D90007FF472AF444901A807F0C4FC414C01A98B
:101DA000374807F03EFA01A807F010FC04F11E01C5
:101DB000334807F05DFA3D4901A807F0B3FC01A9DB
:101DC0002F4807F02EFA01A807F000FC2C48214606
:101DD00007F04EFA94F82130342B05D0372B05D07C
:101DE000382B04D0012502E0022500E00325AB1EBC
:101DF000DBB2022B01D901203DE024210A462C4B05
:101E00000620FFF795FDFFF7E5FE2420FFF7B2FE61
:101E1000284C01210822284B20700620FFF788FD5E
:101E2000FFF7D8FE0120FFF7A5FE01210822234B72
:101E300020700620FFF77CFDFFF7CCFE0120FFF7A6
:101E400099FE012108221E4B20700620FFF770FD2D
:101E5000FFF7C0FE0120FFF78DFE01210822194B7C
:101E600020700620FFF764FDFFF7B4FE0120FFF7A6
:101E700081FE2070284604B070BD00BF941C002075
:101E800054290020A4050020601A002066190020B3
:101E900068190020691900206A19002064180020C0
:101EA000641A00206C180020F09701000F980100C0
:101EB000C4970100581A0020BC970100AC9701009C
:101EC000E8970100B497010008B5034B4FF4614057
:101ED0001B68DB6D984708BD941C002006F016B9FE
:101EE00038B5174C2368254683B9164B93F8512013
:101EF000012A0BD9D3E90001134A0023FFF7A4F804
:101F000003F0FAF808F008FE206038BD08F004FE7F
:101F10002B684EF66022C01A904210D9094B93F8F4
:101F20005120012A0BD9D3E90001074A0023FFF70A
:101F30008BF803F0E1F808F0EFFD014B186038BDB5
:101F40006C1A0020F824002040420F00000000001E
:101F50002DE9F04F8FB003F0E9F83D4C0646E36AF7
:101F6000002B64D0626AB21A052A60DC0821394A63
:101F700009A814F02BFB384B94F828200BAD53F82C
:101F80002270384614F0CAFB394602462846FFF74D
:101F900069FB384614F0C2FB074609A814F0BEFBE3
:101FA00009A9421CE819FFF75DFBD4F844C0A06CF6
:101FB000CDF81CC0FEF7A8F921A3D3E90023FEF752
:101FC000F7F9FEF7D7FC8346206DFEF79DF91EA3B7
:101FD000D3E90023FEF716FBFEF7CCFC1F4B41F6BE
:101FE00058321B68E76A9B78D4F834A0022B94F827
:101FF0004C3008BF4FF496620F2B98BF1849D4F8A5
:10200000389098BFCB5CD4F83C80DDF81CC088BF0A
:102010000023029003920593CDF800C0CDF804B0E0
:102020000495384651464A46434606F00DF80D4B96
:102030007C349C4293D10FB0BDE8F08FAFF30080A9
:10204000CF16AD2F5476E03FDE567A6D369B684052
:102050009C1C00204D98010020050020A0050020B8
:10206000789701007C20002010B505F083FFB0B107
:102070000B4C0C4B207893F9483038B9002B0EDA12
:10208000094B1B681B6C9847012307E0002B06DBFC
:10209000054B0A201B681B6C98470023237010BD5A
:1020A000681A0020F8240020941C002073B5214BEE
:1020B00006461B680C461B7A15465B09022B11D09D
:1020C000042B28D0012B33D11B483146224606F081
:1020D000D7FF002D2CD018480A2102B0BDE870406F
:1020E00006F0ADBEB1F5807F144B28BFFF24184623
:1020F00031462246FFF7B6FA0DB10A220255104BBF
:102100001B685B6C0DB1621C00E0224642F27E70DF
:102110000A4998470CE00A4C23685B6E43B11B6A7E
:1021200098472DB1236807485B6E01211B6A9847C9
:1021300002B070BDA0050020542900207A1A0020AA
:10214000941C0020579801007047704770470000AA
:10215000054B5A799979120442EA0122D979187902
:102160000A4342EA00607047721A002070477047C5
:10217000704770477047002070470000014B186897
:10218000704700BF5C1A00200120704770477047FD
:102190007047000008B508F0BFFC014B186008BD8F
:1021A0005C1A00200146014806F0E2BE54290020D6
:1021B0000146014806F0DCBE54290020014807F022
:1021C000F3B800BFB82A002007F0F6B9014806F0BE
:1021D0008BBC00BF721A002001480C2103F058BCD0
:1021E000701A0020000000000378F7B503F0BF0369
:1021F000012B05460F46144640F0A580052382F8C2
:1022000028304278438843EA0243E362021D4FF0DC
:102210000003009301931FD003798DF800304379B8
:102220008DF8013083798DF80230C3798DF8043050
:10223000037A8DF80530437A00988DF80630FEF762
:10224000A3FC4749FEF7A8FD60630198FEF79CFCDC
:102250004449FEF7A1FDA063EE7AAB7A06F00700D1
:1022600043EA0020330748BF8000FEF789FC3E4B5D
:10227000C6F302169B5DE06384F84C30A87BFEF742
:102280007FFCFEF741F80022384BFEF791F8002260
:10229000374BFEF78DF8FEF76DFB2B7B606403F088
:1022A0007F0212F0400F0CBF00206FF07F00104340
:1022B000DB0918BF00EB8000FEF766FCFEF724F890
:1022C00023A3D3E90023FEF79DF9FEF753FB6B7BB5
:1022D000A06403F07F0212F0400F0CBF00206FF0EB
:1022E0007F001043DB0918BF00EB8000FEF74CFCB9
:1022F000FEF70AF818A3D3E90023FEF759F8FEF712
:1023000039FB052384F83030EA7A7B6AC2F3C012C5
:10231000636282F001020023206584F8543084F85F
:10232000552084F8563084F8573084F8583084F8B3
:10233000593084F85A3084F85B30012084F85C30DE
:1023400084F85D3000E0002003B0F0BDAFF3008002
:102350006F1283C0CAA10D40B278FBBD5EAF33409F
:10236000000BB647000B3647C89901000080764045
:102370000000703FAFF300802DE9F04FD1F834C07A
:10238000CB6A87B00446C86B0D46D1F838B00393CA
:10239000CDF800C0FEF712FE1FFA80FAA86CFDF718
:1023A000B3FF77A3D3E90023FEF702F8FEF7E2FAC2
:1023B0008146286DFDF7A8FF73A3D3E90023FEF73C
:1023C00021F9FEF7D7FA2378012203F07F0343F0C7
:1023D000400362F3050395F84C606F6C237007238C
:1023E0006370039B80466380231DDDF800C025D009
:1023F00060466749FEF71CFC11F0FAF9FEF7DEFDB6
:1024000064498446020A030C584602920193CDF8AF
:1024100000C0FEF70DFC11F0EBF9FEF7CFFD019BBC
:10242000DDF800C0029AA371E071C0F30723C0F386
:10243000074084F804C062712372607295F85520D9
:10244000E37A82F0010262F3C7130F2EE37296BFA4
:10245000514B00229A5DE37A98BF02F007020FFA0F
:102460008AFA62F30613BAF1000FE3720DDB41F64C
:10247000FE739A45A8BF9A46BAF5006F08DB0AF1C9
:10248000020A4FEAAA0A012303E000239A4600E069
:102490000023E27ACAF3022163F3C302134661F315
:1024A0000203E372494684F80AA04846FEF7B8FAE8
:1024B00011F09EF9FEF782FD0028237B0DDB40F230
:1024C0007B229042A8BF10467F2807DD02300522FC
:1024D00090FBF2F063F07F0302E0002003F07F0343
:1024E00060F3060323732D494046FEF7A1FB11F06C
:1024F0007FF9FEF763FD10F59E7F637B0DDD40F2F3
:102500003B129042A8BF10463F2808DD023005224A
:1025100090FBF2F063F07F0303E06FF49D7003F033
:102520007F0360F3060363734FF087413846FEF77D
:102530007FFB11F05DF9FEF741FDFEF725FB184921
:10254000FEF72AFC00210546FEF710FD48B9284693
:102550001449FEF729FD30B92846FEF755FDC0B2F3
:1025600002E0002000E0FF20E37BA07303F07F0384
:102570006FF306031020E37307B0BDE8F08F00BFD0
:102580006F1283C0CAA1FD3FDE567A6D369B68404C
:10259000000BB647000B36478C9901000000204124
:1025A0000000B44300007F432DE9F04F012985B0BE
:1025B0004EDD01F18043013B00EB830C50F82340DA
:1025C0000023A3F1C343A3F59103A3F247634FEAAA
:1025D0009308064600254F1EBD421CD285EA080915
:1025E00009F00309776852F8299087EA030A84EA18
:1025F0000909D1444FEA041A64098AEAD70A84EA2D
:102600008707574489EA070456F8047B01353C44A0
:1026100046F8044CDFE788EA0707056807F0030778
:1026200052F827704FEAD509AE0089EA041986EA04
:1026300054165D407C404E44254486EA0504DCF88F
:102640000060344D3444AB42CCF80040B9D15DE079
:102650004B1C5BDA494249B24FEA810C00EB0C0398
:1026600003936FF003034B4301F1804909F1FF39F4
:1026700002930468274B00EB89099D08039E01958E
:102680004D1E1DB3019FDDF8088085EA070A0AF098
:10269000030A56F8087C52F82AA084EA030B87EA5A
:1026A0000A0AB044DA444FEAD40BA400E0448BEAAF
:1026B000071B84EA57145C4458F8047C8AEA040433
:1026C0003C1B48F8044C013D043EDAE7D9F80050C1
:1026D0004FEA05186E0988EAD40886EA840646445B
:1026E000DDF804805C4008F0030752F8277003F11E
:1026F000C3437D40254486EA0504056803F591033C
:102700002C1B03F247630460002BB6D105B0BDE873
:10271000F08F00BF56DA4CB580EA1040484380EA9B
:102720001040484380EA104070470000F8B5064664
:102730000D4682EA911700242A02E3B244BF231D0A
:10274000DBB2084A5BB252F8230007497840FFF732
:10275000E3FF064B434046F824300134042CEBD110
:10276000F8BD00BF249A01003B9F5D04F462B58769
:102770002DE9F04F0446164654F8042BD1F8249066
:1027800012028BB00B6E22F07F42D1F834A0D1F848
:10279000388022F0FF024946074606A80193FFF75A
:1027A000C5FF20466FF0040106AAFFF7FDFE0024D6
:1027B0002546785D01F028FA01352044182DC4B271
:1027C000F7D1E30719D5A24B1B68187AC0F3400074
:1027D000002800F024819F4903A806F0A3FF03A965
:1027E0009D4806F01EFD03A806F0F0FE9A48012160
:1027F000102206F083FD002011E15046FDF784FD14
:1028000089A3D3E90023FDF7D3FDFEF76BF8BB687E
:10281000C011C0EB030BCBF3120BBBF5802FA8BF8D
:10282000ABF5002B83444046FDF76EFD7EA3D3E954
:102830000023FDF7BDFDFEF755F8FB68C011C0EBA6
:10284000030A97F9105097F9113097F915201D4494
:1028500097F9123097F914401D4497F91330CAF3D1
:10286000130ABAF5002F1D4414444FF0040397F9DE
:102870001620A8BFAAF5801A95FBF3F582441444EC
:1028800005FB05F097F917204FEACB1B144494FB86
:10289000F3F404FB0400FEF777F911F065F8FB7B15
:1028A00080469B0901209840FEF76EF9014640469C
:1028B000FEF7BEF900214FEACA1A8046FEF774FB04
:1028C000002832D02846FEF75FF905462046FEF77D
:1028D0005BF90146284611F045F8FDF715FD002289
:1028E0005E4BFDF765FD52A3D3E90023FDF78AFE99
:1028F000FEF740F85A490446FEF742FB38B120463D
:10290000FDF702FD02460B460020564907E020462F
:10291000FDF7FAFC02460B4647A1D1E90001FDF79D
:1029200093FBFEF727F8044600E00024BB88FA7BFF
:1029300043F309039BB213F4007F0CBF00254FF44F
:102940007C452B43920903FA02F500237A8986F825
:1029500028303B68C2F3CC02C3F31703F362FB7861
:102960005846C3F3021386F83030C6F8249000921C
:10297000FEF70AF93C49FEF70FFA70635046FEF77E
:1029800003F93949FEF708FA009AB06310B2FEF76E
:10299000FBF80199FEF742F8F0634046FDF7B4FCFE
:1029A00027A3D3E90023FDF72DFEFDF7E3FFADB22A
:1029B000B064746428B2FEF7E7F8FDF7A5FC22A323
:1029C000D3E90023FDF7F4FCFDF7D4FF3065FB7974
:1029D0000120C3F3031386F84C307B79C3F3401313
:1029E00086F854307B79C3F3801386F855303B7CEE
:1029F00086F856307B7C86F85730BB7C86F858309A
:102A0000FB7C86F859303B7D86F85A307B7D86F812
:102A10005B30BB7D86F85C30FB7D86F85D300BB0AB
:102A2000BDE8F08FAFF3008000000000D0126341DA
:102A3000182D4454FB2109400000000000207C4078
:102A4000CF16AD2F54760040B278FBBD5EAF334059
:102A5000A0050020FC990100542900200080664058
:102A60000000B442008056408096184BAFF30080BF
:102A70002DE9F04F0D46C96A8BB004460391E86B0F
:102A8000296EFDF7CDFFFEF799FA6B6A80B20490CC
:102A9000286D0593FDF738FC81A3D3E90023FDF7EA
:102AA000B1FDFDF767FF8246A86CFDF72DFC7EA304
:102AB000D3E90023FDF77CFCFDF75CFF4FF081417B
:102AC000FEF7B6F810F094FEFEF79EFA40F2FF33E0
:102AD00080B2984234BF07461F4617F4007FD5F8EE
:102AE0003490D5F83880D5F844B0E37B02D043F079
:102AF000C0030AE0FA0501D5022204E007F08002D3
:102B000092B202B1012262F38713E37394F80FC00B
:102B10004FEA9C1C47FA0CF7FFB23846CDF804C0C8
:102B2000FEF732F806465846FDF7EEFB60A3D3E900
:102B30000023FDF73DFCFDF71DFF029010F022FE83
:102B400001463046FEF774F8FEF738FA029B5FFA4A
:102B500080FB184610F070FE01463046FEF768F81C
:102B6000FEF72CFA5649C6B25046FEF761F810F04F
:102B70003FFEFEF723FADDF804C000B240FA0CFC79
:102B8000A388226803996CF3090361F31702A380F9
:102B900022600221120E1B0A61F306126FF3C713A3
:102BA0006371E27095F85420DBB262F345136371F0
:102BB00095F85520DBB262F38613637195F84C20CB
:102BC000E379484662F30713E371E38840F2431266
:102BD00062F30B03E380FDF797FB37A3D3E90023F0
:102BE000FDF7E6FBFDF7A6FEA368C00960F312033C
:102BF000A3604046FDF788FB2FA3D3E90023FDF730
:102C0000D7FBFDF797FEE36804996289C00961F379
:102C1000CF0260F31303E360003762816279E178E9
:102C200018BF012767F3041201F0F0011B0C267591
:102C30006675A675E6756FF3C7116FF383026FF3C0
:102C40000D13002684F810B084F811B084F812B087
:102C500084F813B0E1706271E3813546605D00F085
:102C6000D3FF01353044182DC6B2F7D1637906A8D9
:102C700066F3C713637154F8042B0599120222F00E
:102C80007F4222F0FF02FFF751FD2046052106AAF0
:102C9000FFF78AFC28460BB0BDE8F08FAFF3008049
:102CA000DE567A6D369B6840CF16AD2F5476E03FE6
:102CB000399D52A246DF913F00000000D0126341CF
:102CC00000002041AFF300808389C3F30D03C3F3F9
:102CD0000B001B0B11D0012B04D1400000F58050DC
:102CE00001307047022B04D1800000F540500230C3
:102CF0007047C00000F5E040043070470F2916D936
:102D00002F2904D81039491041F010010CE06F2927
:102D100004D83039891041F0200105E0EF2905D8A9
:102D20007039C91041F03001C9B200E03F21C37AC7
:102D300061F30503C3727047F0B590E80C000024FE
:102D40008C420FDA094D013465431E01EF1886EA03
:102D500053167E403244154485EA021585EA521521
:102D60002B44EDE780E80C00F0BD00BFB979379E39
:102D7000F0B590E80C000D4E00244E430C4D8C42F3
:102D800005FB04650FDA170105EB020C87EA521701
:102D900087EA0C07DB1B1D4485EA031585EA5315FA
:102DA000521B0134EAE780E80C00F0BDB979379E88
:102DB0004786C86170B590F90120CB79032AA8BF76
:102DC000032262F38713CB7190F901300546002B83
:102DD0000C46CB7A07DD827851B2012903DD023A35
:102DE00062F3C71301E06FF3C713E372E97A01B925
:102DF000297B0A392046C9B2FFF780FF95F90A20DE
:102E000095F90930312A04DD5A1C3B2ACCBF3B3BE3
:102E10001346E27963F30502E271EB69DA10636845
:102E200062F3170363602B6A1A11A36862F3170336
:102E3000A360EB89180422D49BB2FF2B1DD9B3F5F4
:102E4000407F05D2A3F580735B1043F4807310E0DC
:102E5000B3F5E06F05D2A3F540739B1043F4007304
:102E600007E0B3F5706F06D2A3F5E063DB1043F41F
:102E700040739BB201E040F2FF339BB200E00023BD
:102E8000E26863F39732E260B5F910204FF46163B2
:102E90009202B43292FBF3F2238A62F30903238293
:102EA0006B8A190444BF5B429BB29BB24CBF4FF488
:102EB000807200223F2B19D9BF2B04D8403B5B10F6
:102EC00043F040030FE0B3F5E07F04D2C03B9B101A
:102ED00043F0800307E0B3F5707F06D2A3F5E073FB
:102EE000DB1043F0C0039BB200E0FF2313432269D1
:102EF00063F392222261AB8A1A0444BF5B429BB205
:102F00009BB24CBF802200221F2B17D95F2B04D805
:102F1000203B5B1043F020030DE0DF2B04D8603B27
:102F20009B1043F0400306E0B3F5F07F05D2E03B91
:102F3000DB1043F060039BB200E07F231343E37395
:102F4000AB690A22053393FBF2F323EAE3739BB2E6
:102F5000B3F5805F1DD3B3F5405F05D2A3F5805371
:102F60005B1043F4805310E0B3F5E04F05D2A3F5B6
:102F700040539B1043F4005307E0B3F5704F06D263
:102F8000A3F5E043DB1043F440539BB201E043F66A
:102F9000FF73A289E67A63F30D02A2812B78C3F353
:102FA0004003D3B12046FFF78FFEEB6A0A220533B8
:102FB00093FBF2F3181A03B2FF2BA8BFFF236FF0A5
:102FC000FE029342B8BF13469BB213F47F4F14BF67
:102FD0000022012262F3861601E063F38616E67290
:102FE000E37470BD00000000F8B51446884A0F462F
:102FF000034600F1180C164618685968154603C5B3
:10300000083363452A46F7D11B882B80F378804D1F
:1030100013F0440F40F0E980281D0821FFF7A8FEB7
:1030200005F10C000821FFF7A3FE012384F82830E6
:103030002B68C3F31703E3626B6843F31703D800ED
:103040000430FDF74FF96AA3D3E90023FDF7B0F987
:103050000022704BFDF7D6FAFDF78CFCAB6860637D
:1030600043F3170318010830FDF73CF960A3D3E9D7
:103070000023FDF79DF90022664BFDF7C3FAFDF72B
:1030800079FCA0632846FFF71FFEFDF77DFDE06396
:103090002846FFF719FEEA7AEB7C520658BF43F444
:1030A0007F431BB21844FDF76FFDB37C2064308A68
:1030B000C3F3031384F84C30C0F309004FF4616389
:1030C000584300F50070800AFDF70CF94AA3D3E9D4
:1030D0000023FDF76DF9FDF74DFCF3686064C3F361
:1030E0008933D8B21B0A0DD0012B03D1400000F266
:1030F000011007E0022B0BBF8000C00000F202307D
:1031000000F20470FDF7EEF83BA3D3E90023FDF7CE
:103110004FF93BA3D3E90023FDF774FAFDF72AFC2E
:10312000A0643069C0F3882000F48072C0F381137A
:1031300092B200F03F0063B1012B02D14000413058
:1031400007E0022B0BBF8000C000C23000F5E27028
:1031500080B202B1404280B200B2FDF7C3F826A3AC
:10316000D3E90023FDF724F927A3D3E90023FDF7D2
:103170001FF9FDF7FFFBF27A206502F03F0202F033
:103180000F0312090AD0012A02D15B00113305E0B6
:10319000022A0BBF9B00DB00323374330A3303EB8C
:1031A00083035B00A4F86430F3780120C3F30103C8
:1031B00084F830307B6A6362B37CC3F3C00384F865
:1031C0005430002384F8563084F8573084F858304F
:1031D00084F8593084F85A3084F85B3084F85C30D5
:1031E00084F85D3084F85530F8BD0020F8BD00BF8C
:1031F0002D431CEBE2361A3F9A9999999999B93F58
:10320000CF16AD2F5476E03FDE567A6D369B684080
:10321000CC1A002000004E40F8B50C460646486B1C
:103220004949FDF705FDFDF7C9FE484D4649E861EE
:10323000A06BFDF7FDFCFDF7C1FE45492862E06B80
:10324000FDF7F6FCFDF7BAFE276CA86100213846B1
:10325000FDF782FE88B93E493846FDF7E9FCFDF7E7
:10326000ADFEE862206DFDF74FF833A3D3E90023EC
:10327000FDF7C8F9FDF736FB68823549606CFDF74C
:10328000D7FCFDF79BFE32492882A06CFDF7D0FCED
:10329000FDF73AF82AA3D3E90023FDF789F8FDF7F3
:1032A00021FBB4F864200A23B2FBF3F3E8812B730B
:1032B000284D26482946FFF77DFDE26A002362F388
:1032C00017032B600323EB702F6827F07040FDF786
:1032D000EDFEAA7CC30794F84C3048BF87F0006726
:1032E00063F30712AA7494F8543048BF2F6063F355
:1032F000C302AA7401F052FFEB79082160F30503C1
:10330000EB711548FFF718FD14480821FFF714FD6D
:10331000104803F047FF0F4A334602F118051446E0
:1033200003CCAC4218605960224603F10803F6D181
:1033300022881A201A80F8BDB278FBBD5EAF3340F8
:10334000CF16AD2F5476E03F007C12499C1A002026
:1033500000002041801A0020841A00208C1A0020CE
:10336000124A01210023517191714FF48041D361C0
:10337000137053709370D372137353731371D371AB
:10338000137253729372D3811382538213629184A6
:103390009361D3829382D362D384054A13605360CE
:1033A0009360D36013611377D37770479C1A002022
:1033B000CC1A0020F8B500234F6A064614461D4675
:1033C000F25C0133182B85EA0205F9D1002D39D1C1
:1033D000022384F82830B278737843EA0223F27823
:1033E00043EA0243E362B36863637368A363B0892B
:1033F000FDF7C6FBE063B37D84F84C30F089FDF740
:10340000BFFB6064B08AFDF7BBFB042384F8303057
:1034100084F85650002384F8575084F8585084F8A4
:10342000595084F85A5084F85B5084F85C5084F802
:103430005D50A0646762236584F8545084F8555049
:103440000120F8BD0020F8BD2DE9F0470446C86B07
:10345000CF6AD1F83490D1F838A00D46FDF7AEFD13
:10346000242395F84C8023706770C7F30723C7F3B4
:103470000747A370E770C4F804A0C4F80890A081BF
:10348000686CFDF7C1FDE081A86CFDF7BDFD00266D
:10349000A08226746674A674E67484F81680334697
:1034A000A25D0136172E83EA0203F9D1E3751820D5
:1034B000BDE8F0870000000070B5374D0E46294684
:1034C000144604F001FDD5E90201042384F82830F4
:1034D0006B68E362FDF74EFA6063D5E90401FDF71E
:1034E00049FA2B7EA063022B0BD1E869FCF7FAFEA8
:1034F00027A3D3E90023FDF785F8FDF73BFAE06346
:103500000CE0012B0AD1E869FCF7ECFE20A3D3E91B
:103510000023FDF777F8FDF72DFA206495F8423087
:10352000288D0F2B96BF1D4A0023D35C84F84C30A6
:10353000FDF726FB6064688DFDF722FBA064B5F9FA
:103540002E00FDF721FB716A00230122A4F86430EC
:1035500084F8543084F8553084F8563084F8573065
:1035600084F8583084F8593084F85A3084F85B3045
:1035700084F85C3084F85D30094B84F83020616257
:10358000206503CBC4F87100C4F87510104670BDF7
:10359000984B4FFD283F0A40F01A00209C970100ED
:1035A000341B0020AFF3008000207047014B012244
:1035B0001A7070478C1B00207047704770470000DE
:1035C00013B50A20012107F0ADFB0A20012107F005
:1035D00079FB234B04241B689B6D984721480221EB
:1035E00005F0EEFE0A20002107F09CFB1D48232178
:1035F00005F0CAFF013CE4B2FF2C08D01948FF21B6
:1036000005F0C2FF02AB234403F8040CF2E70A20E2
:10361000012107F087FB134805F0CFFE9DF8043029
:10362000E72B1AD19DF80530E72B09D19DF806301C
:10363000E72B12D19DF80730E72B0ED101200DE0CA
:10364000312B0AD19DF80630FA2B06D19DF80700E0
:10365000B0F1B6035842584100E0002002B010BD5E
:10366000941C0020B82A002038B50B4D04462B7856
:1036700083420FD0094B99685B6801FB0031084811
:1036800081428CBF0220002002F0FEFA054B00228E
:103690002C701A7038BD00BF5F050020041C00208C
:1036A000FFA0BC33AF1B0020154B13B51B689B6DEF
:1036B000984702F0EDFB134B1A681C4612790AB9C1
:1036C0000C2000E0002002F0EFFAC02002F0F8FA2F
:1036D0000D4B01A81A889B78ADF804208DF80630B0
:1036E00002F0FDFA236800225A70084A084B1A605B
:1036F000084A094B1A6002F03FFB02B010BD00BF40
:10370000941C0020A005002060960100712A000092
:10371000B81B002071270000B41B002010B50C4C12
:1037200023781BB902F028FB0123237009481821D4
:1037300002F036FB044618B1074B1A6801321A60D2
:10374000064B1B685B6E0BB15B699847204610BD4A
:10375000AF1B00208D1B0020001C0020941C0020AB
:1037600007B50C4B00221A700B4B01A81A889B78E6
:10377000ADF804208DF8063002F0AEFA07481821A3
:1037800002F0B0FA02F0DCFA0028FBD003B05DF8DA
:1037900004FB00BFAF1B002060960100D11B00207E
:1037A00008B502F069FBBDE80840014805F005BE18
:1037B000B82A0020F8B50B4B04461A781E46824200
:1037C0000FD0094B094D9F685B6807FB00372B78CA
:1037D00023B1002003F078FB00232B70044B3470DE
:1037E0009F60F8BD61050020041C0020F81B00202C
:1037F0002C300020234B10B51B689B6D984702F0BE
:10380000A1FF02F053FF204B20491868204A44785A
:10381000204B022C0AD0052C10D0012C15D11E4CA7
:10382000C3F8AC411D4C0C601D4905E01D4CC3F8AC
:10383000AC411D4C0C601D4911600FE01C4CC3F8DD
:10384000AC411C4C0C601C49F6E71C4CC3F8AC4165
:103850001B4C0C601B4911600022427002796AB94E
:10386000194A127B51B21429C8BF14229A7493F9D1
:103870001230112B04DD1122064B00E002229A7453
:1038800010BD00BF941C0020A0050020B81B002024
:10389000B41B00202C300020449A01001932000093
:1038A000E92F0000A89A010049340000B533000058
:1038B0009C99010079230000E9210000D0990100C2
:1038C000712A000071270000041C002073B5404BD2
:1038D000404E00221A7096F84B31002B76D0D6F865
:1038E000AC31DA7F052A08D8DFE802F00B070A07B7
:1038F0000B0371228DF8072003E04FF6FF7500E0FF
:1039000000259B7A53B92846312103F0FFFBFA21A9
:1039100003F0FCFBB62103F0F9FB0546D6F8AC3109
:103920009C7FD6F8AC3196F84B1193F820202948AB
:103930008A1A9442DB7F27DA042B11D0052B08D09A
:1039400073B1031993F84C11284603F0DFFB0546C9
:1039500006E0031993F84C110DF1070003F0E8FBA2
:10396000D6F8AC2192F82330032B0AD1927F194B61
:1039700019492344A21A895C93F84C214A4083F8E0
:103980004C210134E4B2CCE7042B144E03D0052BB8
:1039900007D093B90CE000F5A67003F007FC38B12E
:1039A00008E004449DF8072094F84C319A4201D174
:1039B000012300E00023337008E0044494F84C2114
:1039C00094F84D3143EA02239D42F0E702B070BD06
:1039D000F81B00202C300020709A0100BC1B002036
:1039E00008B502F051FEBDE80840014805F0E5BC0D
:1039F000B82A002008B50B4B1B681A78022A03D09E
:103A0000D3F888300848984703F0F6FB074B0422A8
:103A10001B685A70064A074B1A60074A074B1A6020
:103A200008BD00BF941C002080841E00A00500205B
:103A3000A9350000B81B0020B9340000B41B0020D9
:103A400038B5204B1B689B6D984702F0C5FD0020E0
:103A500002F070FC02F086FE3E3002F031FD0020E4
:103A600002F082FC422002F087FC002002F084FC7D
:103A70000446012002F078FC022002F05BFC02F018
:103A800071FE00F59C7002F01BFD002002F06CFC42
:103A9000422002F071FC002002F06EFC054601207D
:103AA00002F062FC084805F088FC122D05D1122CAA
:103AB00005D1064B00221A7001E0002038BD01201C
:103AC00038BD00BF941C0020B82A002060050020EB
:103AD00001700239062939D8DFE801F0040A10180C
:103AE000202830001E4B43601E4B836041232AE098
:103AF0001D4B43601B4B8360182324E01B4B43602A
:103B00001B4B8360012343700A2326E0194B43605B
:103B1000174B83600123437014231EE0164B436050
:103B2000134B836001234370112316E0134B436052
:103B30000F4B8360012343701B230EE0104B436047
:103B40000B4B8360012343701E2306E00D4B436043
:103B5000074B8360022343700E230373704700BF3B
:103B6000C07AC635801A0600404FA836D0B3CF338E
:103B7000400D030000D6C8332028051C08E6D333C7
:103B8000801C9E3340AEBF33C0EBC030013880EAAA
:103B9000103000EB800040F6090380EA1010584313
:103BA00080EA104070470000F0B50C4687B0144919
:103BB0001746054605F04CFD2744BC421DD0114B6D
:103BC00014F8016B0E4903A80F2E98BF194605F093
:103BD0003FFD10223146684605F070FD694603A896
:103BE00005F0C6FD0146284605F0BDFD684605F016
:103BF000EDFC03A805F0EAFCDFE7284607B0F0BDBE
:103C00005898010088970100002328B1C20744BFDB
:103C10000133DBB24008F8E703F001007047000011
:103C20002DE9F341504F3B681B78042B09D0062B3C
:103C30000AD14E4B4E4AD3E900010023FDF704FAA6
:103C400067E001F073FA64E04A4B4B4E1B68D3F80F
:103C500080309847044608B306F05EFF96F84C3073
:103C6000054623B106F058FFB36DC01A01E04FF0CE
:103C7000FF30281A84424FF47A7305D8041BB4FB32
:103C8000F3F203FB124406E0241AB4FBF3F003FB47
:103C90001044C4F57A744FF4C87500E005463748FF
:103CA00001F0E7FC6328CCBFA0F2B2701E308DF8A3
:103CB0000600324801F0E9FC8DF805002F4801F0BC
:103CC000F0FC8DF804002E4801F0F4FC8DF80200A1
:103CD0002B4801F0F9FC8DF80100294801F002FDA4
:103CE00002AB03F8080D684601F0AAF996F84C30CB
:103CF00080462BB106F010FF1F4B9B6DC01A01E0F0
:103D00004FF0FF302C1B20444FF47A72B0FBF2F0DE
:103D100040443B685C78631E5C425C41194B5D78B3
:103D2000012D12D91B78012B12D94000FFF72CFF6F
:103D3000B0FBF5F303FB1500C0B244B1441CE4B280
:103D4000AC4205D3441EE4B202E0002400E0044685
:103D50000D4B1B782BB10D4B1B6813B15B692046D3
:103D6000984702B0BDE8F081A0050020F8240020AB
:103D700040420F00941C00206C190020A81900205C
:103D8000B8190020041C0020501B0020C01B00207C
:103D900070B5234C2378002B3BD1224B1B78002B92
:103DA00035D1214E0021756B2846FDF7D5F820B19D
:103DB000B06B0021FDF7D0F858BBB06B1B49FCF786
:103DC00037FFFDF7FBF81A4A00F5370303F5D85320
:103DD0009342064613D915492846FCF729FFFDF7FB
:103DE000EDF8144B98420CDC134B9E420BDD134B49
:103DF000134903448B4294BF0421032104E00121B1
:103E000002E0022100E003210648FFF761FE0123E2
:103E1000237023781BB1BDE87040FFF701BF70BD70
:103E2000501B0020041C0020A4210020007C12490B
:103E3000006CDC02FF1AB7000077DD05FF73B701E5
:103E40007ECBA40038B50E4B05461B780BB900207D
:103E500038BD0C4C2368002BF9D00B4B1B681B7929
:103E6000022BF4D006F058FE084B094A1B68126872
:103E7000C01A9042EBD9236829460648984738BDB6
:103E8000501B0020B81B0020A0050020FC1B0020B8
:103E9000901C0020D11B002005280FD8DFE800F07F
:103EA0000305070E0B09064B06E0064B04E0064B24
:103EB00002E0064B00E0064B587F70470020704739
:103EC000D0990100449A0100A89A01009C99010030
:103ED000D49A01002DE9F0433C4B85B01B780BB917
:103EE00000206FE03A4B1A681F46002AF8D00028DD
:103EF000F6D0384A384B10601868904600799946D9
:103F0000022855D0354C364D31B106F005FE2168FA
:103F10002B68401A9842E3D901F008F93B6806463D
:103F2000DB699847D9F800301B7A9B072BD52D49C0
:103F300001A805F0F7FB01A92B4805F072F901A8CB
:103F400005F044FB0A223146274805F0E1F92749EC
:103F500001A805F0E7FB01A9234805F062F901A8D3
:103F600005F034FB1C4B1B685878FFF795FF204980
:103F7000024601A8FFF718FE1B4801A905F06EF9DB
:103F800001A805F023FB1B4B1A6801321A600023BD
:103F9000C8F80030184B194AD3F8AC3153B1126845
:103FA000D88C526B198D9047286006F0B5FD2060C3
:103FB000012007E013684FF4AF615B6B4FF416709C
:103FC0009847F1E705B0BDE8F08300BF501B002023
:103FD000C01B0020141C0020A0050020FC1B00209A
:103FE000901C0020509B010054290020569B01008A
:103FF000D11B0020B01B00202C300020941C00207E
:10400000104AD2F8AC3153B1D97A012907D193F8CB
:10401000211082F8B010997B82F8B01102E00721DC
:1040200082F8B01092F8B0000749415CD18143B1E9
:104030009B7A052B05D121F06001024B41F0600114
:10404000D98170472C300020049E010010B5084A29
:10405000084C002323701370FFF7D2FF064807496E
:1040600002F098FB237813B902F0B0FBFAE710BD19
:10407000F81B00208C1B0020C41B0020D542000030
:1040800010B5094CE06102F06DFBD4F8AC31606012
:104090002BB1DB7A012B0CBF0320022000E00220B1
:1040A000BDE8104002F010BF2C30002038B51E4C87
:1040B0001E4D002323702B7833B9FFF7A1FF1C4856
:1040C000FFF7DEFF01232B7023780BB902F07EFB94
:1040D000184B1B685B6E0BB15B699847207808B37F
:1040E000154AD2F8AC3192F84B01997F93F8203001
:1040F000401AC01AC0B2222828BF22200023DCB2F6
:10410000844207D254181C4494F84C510B4C1D5552
:104110000133F4E7127B0A4B01201A70094B1A682D
:1041200001321A6038BD00BFBC1B0020F81B002004
:10413000CD380000941C00202C3000208D1B002066
:10414000D01B0020001C00202DE9F7435F4C0746E0
:10415000D4F8AC318946DB7F9046052B08D8DFE8E0
:1041600003F00B070A070B0371238DF8073003E0F8
:104170004FF6FF7500E00025002002F0A5FE0120AB
:1041800006F006FD0022D4F8AC6184F84B21B27A27
:104190004E4B12B1022A0DD00AE02846312102F01E
:1041A000B5FFFA2102F0B2FFB62102F0AFFF0546DB
:1041B000002642E0012183F84B11F17E83F84B2168
:1041C00083F84C11728B83F84D21032283F84B2125
:1041D000B26983F84E21042283F84B21B26983F837
:1041E0004F21052283F84B21727F83F85021F27F03
:1041F000052ADDD1062283F84B219DF8072083F89C
:104200005121D5E7D4F8AC21304892F82310032986
:1042100094F84B1115D1DFF8B8E00144F85C1EF8B2
:104220000330434081F84C31D37F042B0CD194F8F8
:104230004B310136013384F84B31F3B24B45E1D3B6
:104240001AE0FB5C0144EDE7052B0BD0002BEED010
:1042500094F84B312846234493F84C1102F056FF52
:104260000546E4E794F84B310DF10700234493F839
:104270004C1102F05DFFDAE7D4F8AC21134BD27F8A
:10428000042A1BD0052A0FD0C2B193F84B21280A6B
:10429000991881F84C01911C0132D2B283F84B116C
:1042A000134483F84C5109E093F84B21511C83F8D7
:1042B0004B1113449DF8072083F84C210120C4F8CA
:1042C0001C8002F001FE03B0BDE8F0832C3000201A
:1042D000709A0100034B196819B10348034AFFF7AC
:1042E00033BF7047141C0020D11B0020AD350000E7
:1042F000F8B5284D2B681A78042A47D0012A45D0F2
:104300002548D3F8883098472B68D3F88C309847E5
:1043100006F002FC064606F0FFFB801BB0F57A7F34
:1043200024D21E4804F0B2FD0028F4DD1B4804F03E
:10433000E6FD1B4A762413681A49B3FBF4F704FB25
:1043400017340855581C1060DA1F7624B2FBF4F7B6
:1043500004FB17241448C01A1044C779085D87422B
:10436000D9D101329A42F0D1012400E000240C4B53
:1043700000210C487622196012F088F82B681B780F
:10438000022B04D0054804F043FE00E00024204640
:10439000F8BD00BF941C002080841E00542900201A
:1043A000F41B0020181C0020249B01001FB5224C88
:1043B000236833BB214B1B78082B22D0FFF740FB2F
:1043C00020B11F4B01A823601E4911E0FFF7F8F848
:1043D00020B11D4B01A823601C4909E0FFF788FFAD
:1043E00020B11B4B01A823601A4901E01A4901A81A
:1043F00005F098F9194801A904F030FF01A805F06B
:10440000E5F8174B1B68997851B922685AB10E49E3
:104410008A4208D05B78022B05D11248072100E0C0
:104420001048FFF755FB206820B103699847024BFD
:104430001B68187804B010BDC01B0020A405002024
:104440002C9B0100589B0100D89B0100719B01002F
:10445000009B01008A9B0100A39B010054290020BE
:10446000A0050020041C002073B5334804F00EFDA5
:1044700000285FD0304804F042FD304C762322689B
:104480002F49B2FBF3F503FB15254855A2F13B007C
:10449000551C2560B0FBF3F403FB14040C5D0D46C2
:1044A0000A2CE2D1A2F13A04B4FBF3F603FB164462
:1044B0000C5DB02CD9D1A2F13904B4FBF3F603FBA7
:1044C00016440C5DCD2CD0D1A2F13804B4FBF3F628
:1044D00003FB1643CB5CE02BC7D103467621B3FB2D
:1044E000F1F601FB1631174C695CA01A1844013330
:1044F000934280F83B10F1D104F10B0001A902F0C6
:104500009DFE0130B1D0A2880023222A94BFD2B2EE
:104510002222D9B2914205D2E118C87A0A495854E8
:104520000133F6E7A279094B01201A70084B1A688B
:1045300001321A6002B070BD54290020F41B002023
:10454000181C0020511B00208D1B0020D01B0020B8
:10455000001C0020054A064B10B513605B69144629
:1045600003B19847206800B1007810BD941C00206A
:10457000F498010000207047034610B5C86B8C6E9C
:10458000D96BFCF74BFAFCF719FD40F2562300F209
:104590002B1098420ED82046FCF710FDB0F5C87FCE
:1045A0000ADBB0F52F7F09DBB0F57A7FACBF0020C6
:1045B000012010BD002010BD032010BD022010BD41
:1045C00000207047000000002DE9F04704460E4629
:1045D000C86BE16BFCF722FAFCF7F0FC40F25623C3
:1045E00000F22B10984200F2C380606CFBF78CFE47
:1045F00002460B4600206A49FBF726FD5EA3D3E97D
:104600000023FBF7D5FEFCF7B5F980460FF0BAF8AA
:10461000A56C0446706CFBF777FE02460B46002043
:104620005F49FBF711FD54A3D3E90023FBF7C0FE5C
:10463000FCF7A0F981460FF0A5F8214682462846EE
:10464000FCF7F6FAB76C044651463846FCF7F0FA28
:1046500001462046FCF7E2F9044640460FF0ECF82C
:10466000824648460FF0E8F8514680462846FCF757
:10467000DFFA414605463846FCF7DAFA0146284695
:10468000FCF7CCF9214605462046FCF7D1FA29462D
:1046900007462846FCF7CCFA01463846FCF7C0F935
:1046A0000FF062F9FBF730FE35A3D3E90023FBF7E7
:1046B0007FFEFCF75FF92146074628460FF052F9C6
:1046C000FBF722FE0022374BFBF772FE2EA3D3E945
:1046D0000023FBF797FFFCF74DF933490446FCF73D
:1046E0004FFC38B12046FBF70FFE02460B46002078
:1046F0002B4907E02046FBF707FE02460B4624A1A4
:10470000D1E90001FBF7A0FC044638460D46FBF753
:10471000FBFD21A3D3E90023FCF7DAF848B32946CF
:104720002046FCF727F9F16EFCF778F91F4920F0D5
:104730000040FCF71BFCE0B13946B06EFCF72CFBE7
:104740001B490446FCF712FC70B920461949FCF7D6
:104750000DFC58B9204618494FF00105FCF706FC3E
:1047600000B90546E8B204E0032002E0022000E0C0
:10477000002040B2BDE8F087399D52A246DF913F4C
:10478000CF16AD2F5476E03F182D4454FB2109403D
:104790000000000000207C409A9999999999B93FAE
:1047A00000805640008066400000B4420000204176
:1047B000000010410000504100009841AFF300801C
:1047C0002DE9F04FDFF8B49085B08246D9F8340077
:1047D000FBF79AFD0646D9F838000F46FBF794FD23
:1047E000244B4FF07C0808FB0A380446D8F8340004
:1047F0000D46FBF789FDCDE90001D8F83800FBF73D
:1048000083FD22462B46CDE902013046394600F0B1
:10481000B3FDFCF7AFF8C8F86800D9F83400FBF72F
:1048200073FD0446D9F838000D46FBF76DFD0646CA
:10483000D8F834000F46FBF767FDCDE90001D8F842
:104840003800FBF761FD3B46CDE9020132462046C8
:10485000294600F039FEFCF78DF8074BC8F86C00CC
:104860001B6823B148464146984788F8700005B058
:10487000BDE8F08F9C1C0020981C0020A421002083
:10488000094B1B685A7A094BC2F3C202022A04D0B0
:10489000032A04D02AB9064A04E0064A02E0064A7E
:1048A00000E0064A1A607047A0050020981C00200E
:1048B00075450000C9450000C1450000794500006C
:1048C00070B506F029F9134B1A681E46801AB0F528
:1048D000FA6F1ED9104C0025236863B10F4B5A6A3A
:1048E00054F8083CD21A0A2A05DC012A09DD2846B8
:1048F000FFF766FF05E0A4F12C0009497C22FCF7D4
:10490000B1FE0135082D04F17C04E5D106F004F96F
:10491000306070BD7C200020C81C0020A421002035
:104920008020002038B50B4C04F57875236863B1FE
:10493000094B5A6A54F8083CD31A0A2B05DDA4F136
:104940002C0006497C22FCF78DFE7C34AC42EDD174
:1049500038BD00BFC81C0020A421002080200020FA
:1049600010B5084C237833B90748084903F007FE0F
:1049700008B901232370064B187810B100221A7071
:10498000012010BD782100207C21002095490000E5
:10499000A0210020074A08B503460020107039B94D
:1049A000194674220448FCF75DFE044B01221A707C
:1049B00008BD00BF7821002044220020A021002053
:1049C000037810B5044623B106F0A6F8636BC01A4D
:1049D00010BD4FF0FF3010BD037810B5044623B171
:1049E00006F09AF8E368C01A10BD4FF0FF3010BD12
:1049F000037810B5044623B106F08EF86368C01A38
:104A000010BD4FF0FF3010BD37B5FFF7C1F9224B95
:104A10001A681D4652781AB9FDF742F8FCF7BCFF38
:104A2000FFF79EFF002834D000F080FB1B4C01A94B
:104A300060621B4802F002FC01302AD0184821466F
:104A4000184AFEF739FD20B32B685B78DBB9164CAA
:104A50002378F3B194F87C30DBB194F83C30C3B1E7
:104A60002046FFF7ADFF40F6AC55A84211D804F13F
:104A70007C00FFF7BDFFA8420BD804F13C00FFF714
:104A8000ABFFA84205D80748FFF7DCF90021FFF784
:104A900021FA03B030BD00BFA0050020A4210020F2
:104AA00059220020FC2000206C190020000000008A
:104AB0002DE9F341FDF712FAFDF712FAFDF7D4FAEA
:104AC00000F034FB4E4C4F4D94F851306862032B8C
:104AD00038D1A068FBF706FC45A3D3E90023FBF718
:104AE00091FDFBF747FF6863E068FBF7FBFB40A322
:104AF000D3E90023FBF786FDFBF73CFFA863606961
:104B0000FBF7F0FB0022404BFBF77CFDFBF732FF8D
:104B1000E863608AFCF734F86864B4F91000FBF7C6
:104B2000E1FB0022394BFBF76DFD33A3D3E90023F2
:104B3000FBF768FDFBF71EFFE369A8642B64238B7A
:104B4000A5F86430FFF70CFF68B300F0EFFA686275
:104B50002F4D01A905F1150002F070FB013022D0A4
:104B60002C4E05F1150027493246FEF7A5FCB0464C
:104B700080BB18E000F0DAFA736AC01A0A2809DC70
:104B80000135082D06F17C060DD0F26AD8F82C30DC
:104B90009A42EFD17C2202FB05701E49FCF762FDB0
:104BA0002846FFF70DFE94F85130032B01D1FFF793
:104BB00087FE05F0B1FF184D2B68C01AB0F57A7F5B
:104BC00003D994F85130032B0BD0FFF7ABFE02B0A2
:104BD000BDE8F0812B7A002586F866300F4E374607
:104BE000D3E7FDF7B5F905F097FF2860EDE700BFC3
:104BF00000000000D0126341CF16AD2F5476E03F85
:104C0000F8240020A421002000408F4000005940DB
:104C100044220020FC200020202200209C1C002098
:104C2000014803F097BC00BF7C210020F0B585B09F
:104C3000FFF790FC6A4B6B495D2283E80600197C04
:104C40000722694E1A7201F0F0010122B0705A7207
:104C50009A72DA721A736FF3471102225A73DA7377
:104C600019745A7C997C02F0800201F0F8016FF30C
:104C7000C5016FF3C7125D4F99745A743B681B7876
:104C8000022B06D0062B01D03BB902E0FDF71CF940
:104C900007E057484FF4165101E05548554904F0D4
:104CA00067F9534804F0CEFA534901A804F03AFDDD
:104CB000524D01A94E4804F0B4FA01A804F086FC54
:104CC00029684B48013104F0B4FA4D4901A804F0B9
:104CD00029FD01A9464804F0A4FA01A804F076FCD5
:104CE0002B68424C5B6A98471022014601A804F0E9
:104CF000F6FC01A93E4804F0B1FA01A804F066FCF4
:104D00003B4804F095F83B681B78022B16D0062B25
:104D10004ED12B685B6A98473A4B0D2220F07F40BA
:104D200083F84C202268D862527883F8282002F059
:104D300063FAFFF7A5FD2E48334933E0FFF736FB52
:104D4000F070002831D002F057FA23685B781BB965
:104D5000FCF752FF244B187125482C4904F069FADE
:104D60003B685B784BB1012B09D0022B09D0284A54
:104D70002849052B08BF114604E0274902E02749CE
:104D800000E027491A4804F073FA2649184804F04D
:104D900050FA3279244B164853F8221004F068FA7E
:104DA0001348224904F064FA10E0236807221A70BD
:104DB0001F490F4804F05CFA0D4804F039F80C481C
:104DC00004F026F90A480B4904F0D2F800211948EA
:104DD00003F0D2FB1849064804F04AFA05B0F0BDCA
:104DE00024220020DADEBABAA4050020A0050020A3
:104DF0005429002080841E00009C0100941C002087
:104E0000089C0100A4210020229C01002C9C010090
:104E10009C990100FC9B0100D0990100449A01007B
:104E2000A89A0100379C0100380500203E9C010033
:104E30004B9C01007C2100205A9C010010B5FFF71B
:104E40008FFDA8B100F072F90A490B4C0A7D0B7A6C
:104E5000C4F80700153104F10B00A280A371FCF720
:104E600001FC214605483B22BDE8104004F008B98A
:104E700010BD00BF442200206205002054290020FC
:104E8000064B1B681B78022B03D0062B03D1FFF7C0
:104E90000FBEFFF7B9BDFFF7D1BF00BFA0050020CF
:104EA00010B50C468047A0470DF0BCF90BF096FA00
:104EB000F9E7000000B591B003F07AFF01A80021E6
:104EC0003C22082306F0C6FA0D4B01A91B680D48C9
:104ED000023B07934FF4006309930B4B1A685B681E
:104EE00005920693094B1A68049B5A60002206F04B
:104EF000CBFA0AF071FC002011B05DF804FB00BF92
:104F00008CDA0100A14E0000AC050020B4050020A1
:104F10003C23B0FBF3F203FB12000870B2FBF3F08A
:104F200003FB10234B701823B0FBF3F203FB1200BA
:104F3000131D88700720B3FBF0F0C0EBC0001B1AF4
:104F4000F0B501330024CB702046E7B207F2B2730C
:104F500013F0030612D1642593FBF5FC05FB1C3509
:104F60007DB94FF4C87593FBF5FC05FB1C35002D8E
:104F700040F26D1508BF4FF4B77504E040F26D15AF
:104F800001E04FF4B7752844904204F10104DCD9E4
:104F90008F7196B9642493FBF4F504FB15347CB946
:104FA0004FF4C87493FBF4F504FB1534002C40F265
:104FB0006D1408BF4FF4B77404E040F26D1401E0C3
:104FC0004FF4B774041B141B642293FBF2F702FB2B
:104FD00017374FF4C87293FBF2F002FB1033002234
:104FE000D5B2012D06D146B94FB9002B0CBF1D20FB
:104FF0001C2005E00948105C02E01C2000E01D2098
:10500000844205D301320C2AC0EB0404E8D11546D2
:10501000013501344D710C71F0BD00BF759C01006C
:1050200038B5054C05462368984203D00349FFF77D
:105030006FFF256038BD00BFB8220020BC220020D1
:10504000F0B52A4B817940F2B2724B43A2F2B274AE
:105050008C4214DA940710D1642492FBF4F504FB1B
:10506000152434B94FF4C87492FBF4F504FB1524ED
:105070001CB903F5A83303F5C0730132E6E701F26A
:10508000B271642291FBF2F502FB15154FF4C87260
:1050900091FBF2F6447902FB16160122A24214DAC1
:1050A000022A08D18F0706D105B926B903F51813CE
:1050B00003F56E5307E00E4FDFF838C0174417F8BA
:1050C000017C0CFB07330132E8E742783C21514375
:1050D00084784FF4616202FB0412017800790A447B
:1050E0000449013801FB00201844F0BD8033E10180
:1050F000759C01008051010008B5074B0222186021
:10510000064B1B681844064B1860064B1A7005F0D6
:1051100003FD054B186008BDC4220020B80500201F
:10512000D4220020C8220020D022002038B505F06B
:10513000F3FC144A144C1368C01AB0F57A7F06D3F6
:10514000216803F57A73013121601360EFE70F4D99
:1051500023682A689A4212D80D4B1B687BB1984786
:1051600010B1FFF7C9FF0AE00A4B1A68236813441D
:105170002B60094B1A78003218BF01221A70206880
:1051800038BD00BFD0220020C4220020D42200203D
:10519000CC220020B8050020C822002008B5FFF767
:1051A000C5FFFFF73DFF014B187808BDBC2200206A
:1051B00070B5059C0546632C0848049ECCBFA4F23C
:1051C000B2741E348471467185700371417002702F
:1051D000FFF736FFBDE87040FFF78EBFBC2200200E
:1051E0004E21002280F83A1080F83B100221027014
:1051F0004270828082600273028242610276828300
:10520000026280F824200285C26280F8302080F893
:10521000382080F8392080F83C2080F83D20026456
:1052200080F84C2080F84D20026580F85C2080F8E2
:105230005D20426680F86C2080F86D20426780F81F
:105240007C2080F87D20C0F8842080F88C2080F8B5
:105250008D20C0F8942080F89C2080F89D20C0F814
:10526000A42080F8AC2080F8AD20C0F8B42080F8ED
:10527000BC2080F8BD2080F8CD1080F8CE2080F8CA
:10528000CF2080F8D020C0F8D420C0F8D820C0F8B3
:10529000DC20C0F8E020C0F8E420C0F8E82080F866
:1052A000BE207047A1F14103052B02D8A1F13700C0
:1052B0007047A1F16103052B94BFA1F15700A1F143
:1052C0003000704738B505780446B5F12D035D42CE
:1052D0005D4105B1441C204611F018F86423434396
:1052E000224614F8011BA1F130000928F8D92E2913
:1052F0000BD151783039092907D80A2000FB013336
:105300009278303A092A98BF9B180DB1584238BD9F
:10531000184638BD38B50C46054610F0F7FF642333
:10532000B0FBF3F203FB1203114922804B432846E2
:10533000014610F8012BA2F13005092DF8D92E2ACB
:105340000CD10B4A084610F8011F3039092905D83D
:105350000A25B2FBF5F202FB0133F4E703EB83030A
:1053600001330322B3FBF2F363600023237238BDE1
:1053700080969800000000002DE9F04F87B00446A9
:105380000D4610461946DDE91223FAF75DFE4AA3E1
:10539000D3E90023FBF70CF806460F460EF0A8F9F8
:1053A000CDE90401304639460EF0CCF842A3D3E9EA
:1053B0000023CDE9000120462946FAF7F9FF3EA374
:1053C000D3E9002380468946DDE91001FAF7F0FFB2
:1053D00004460D46404649460EF08AF906460F46F9
:1053E000404649460EF0AEF882468B462046294696
:1053F0000EF07EF9CDE90201204629460EF0A2F812
:10540000DDE9022304460D4650465946FAF7D0FF1F
:105410002246804689462B4630463946FAF7C8FF71
:10542000DDE90023FAF7C4FF02460B464046494631
:10543000FAF70AFE02460B46FAF7BAFFDDE9042343
:105440008046894620462946FAF7B2FF02460B46B7
:10545000FAF7AEFF02460B4640464946FAF7F6FD1C
:105460000EF02AFADDE902238046894630463946A5
:10547000FAF79EFF224606460F462B4650465946EF
:10548000FAF796FFDDE90023FAF792FF02460B4692
:1054900030463946FAF7DAFD02460B4640464946A1
:1054A0000EF008FA06A3D3E90023FAF781FF07B04C
:1054B000BDE8F08FAFF30080399D52A246DF913FE7
:1054C000000000C06E4F58412DE9F04F85B00446F2
:1054D0000D46DDE91001FAF7B7FD3DA3D3E900233E
:1054E000FAF766FF3AA3D3E9002306460F462046A3
:1054F0002946FAF75DFF36A3D3E9002304460D469B
:10550000DDE90E01FAF754FF82468B4630463946F4
:105510000EF0EEF8CDE90201504659460EF012F8B1
:1055200080468946204629460EF0E2F802460B46A0
:1055300030463946019200930EF004F8019A009B20
:1055400006460F461046194642464B46FAF730FFCC
:1055500032463B46FAF72CFF06460F4620462946C0
:105560000DF0F0FF04460D46504659460EF0C0F8C7
:1055700002460B4620462946FAF71AFF32463B46BA
:10558000FAF762FD424604460D464B46DDE902014C
:10559000FAF70EFF22462B460EF08CF9002200236C
:1055A00004460D46FBF776F940B1204629460AA38A
:1055B000D3E90023FAF74AFD04460D462046294662
:1055C00007A3D3E90023FAF7F3FE05B0BDE8F08F97
:1055D000399D52A246DF913F182D4454FB211940BA
:1055E000F8C1631ADCA54C40034653F81C2F10B5D4
:1055F00042605A68044682601B7A0373034653F87C
:10560000282F02615A6842611B7A037690F839307C
:1056100080F8383090F83B3080F83A3005F07CFA6A
:10562000012360636370237010BD836810B543600D
:10563000044605F071FA0123E0606370237010BD29
:10564000836810B54360044605F066FA0123E06004
:105650006370237010BD10B504460846FFF732FE94
:10566000A06010BD10B50446084610F04FFEA060C3
:1056700010BD4268002343706423B2FBF3F003FBC8
:10568000102303F5FA6080B270474268002343702C
:105690006423B2FBF3F2B2FBF3F103FB1120C0B2BF
:1056A000704700234370406842F21073B0FBF3F080
:1056B000C0B27047002343704068024BB0FBF3F068
:1056C000C0B2704740420F0042680023437042F26C
:1056D0001073B2FBF3F26423B2FBF3F103FB11206E
:1056E000C0B270474268002343706423B2FBF3F2F8
:1056F000B2FBF3F103FB1120C0B27047C36810B5D1
:105700008360044605F008FA01236060637023702B
:1057100010BD10B504460846FFF7D4FDE06010BD8B
:10572000C36810B58360044605F0F6F90123606094
:105730006370237010BD10B50446084610F0E6FDF6
:10574000E06010BD10B504462146103010F088FF0F
:1057500005F0E2F90123206284F8253084F8243032
:1057600010BD102211F008B8F8B590F8BD600446DD
:10577000002E6BD090F8BE10FFF794FD94F8BF1088
:1057800005462046FFF78EFD94F8BC3000EB05106F
:10579000C5B2AB4253D1D4F8E8300133C4F8E83095
:1057A00094F8D03023B1D4F8E0300133C4F8E030BD
:1057B00094F8CD30B3B1012B2ED104F13C00FFF7AA
:1057C00034FF04F14C00FFF73BFF94F8D0301BB3DB
:1057D0002046FFF709FF04F15C00FFF78FFF04F19B
:1057E0006C0017E004F14C00FFF72AFF94F8D0306A
:1057F00053B12046FFF7F8FE04F17C00FFF77EFF6F
:1058000004F1AC00FFF77AFF04F18C00FFF788FF8A
:1058100004F19C00FFF772FFD4F8D850002D00F07F
:10582000D580D4F8D830A86A996AFBF791FF002890
:1058300040F0CC802846FFF785FF2D6BEEE7D4F8CB
:10584000E43000260133C4F8E430BFE090F8CE2005
:1058500072BB00F1BE0528465D49FBF779FF20B118
:1058600028465C49FBF774FF08B901230CE0284681
:105870005949FBF76DFF20B128465849FBF768FFEF
:1058800008B9002300E0022384F8CD30D4F8D430E6
:10589000C4F8D830D4F8D870002F00F09780B86AD8
:1058A0002946FBF755FF002880F28C803B6BEFE721
:1058B00090F8CD1002296ED090F8BE30002B6AD03F
:1058C00042EA4112013A2B2A65D8DFE802F016239A
:1058D000272E344552585A645C646464646464647A
:1058E0006464646464646464646464646464161C0E
:1058F00023272E343B3D3F6464624C3004F1BE01EB
:10590000FFF7A9FE47E0B3F141004342434184F869
:10591000D03040E0BE3004F11C0109E0B3F1530186
:105920004B424B4180F8243035E0BE3004F1280171
:10593000FFF7F0FC2FE0B3F157025342534180F8D8
:10594000303028E05C301FE06C301DE03C3004F16A
:10595000BE01FFF787FE1EE0302B94BF002201221C
:1059600080F8D02012B1A3F13002D2B284F83920ED
:1059700011E08C3004F1BE01FFF7DDFE0BE09C303E
:1059800002E07C3000E0AC3004F1BE01FFF7C1FE64
:1059900001E080F83B30D4F8D850BDB1D4F8D8300D
:1059A000A86A996AFBF7D4FE80B9EB6A94F8CE2016
:1059B00093420BDC04D1284604F1BE01FFF7D1FE6F
:1059C0002D6BEAE702D00023C4F8D8303046F8BD8A
:1059D000819C0100879C01008D9C0100939C01002B
:1059E00038B5D0F8DC30242903F1010304460D4614
:1059F000C0F8DC302AD090F8CF3004D80A290CD077
:105A00000D2932D109E02A2907D02C292DD190F86F
:105A1000BC2082F02C0280F8BC200E2B4FF000003E
:105A200005D8234483F8BE002046FFF79DFE94F876
:105A3000CE30013384F8CE30002384F8CF30B5F176
:105A40002A035D425D4184F8BD5038BD0020022329
:105A500084F8CF0084F8CE0084F8BC0084F8CD3000
:105A600084F8BD0084F8D00038BD0D2B05D85A1C31
:105A7000234484F8CF2083F8BE5094F8BD0028B9A1
:105A800094F8BC305D4084F8BC5038BD002038BD6F
:105A90000180704708B50A20002105F043F9012074
:105AA00008BD08B50A20012105F03CF9002008BD19
:105AB00038B53C4BD82220240C250A2000219C70AC
:105AC0001D705A7005F02EF90021374803F05CFD77
:105AD0006C21354803F058FD2946334803F054FD46
