:10000000E838002095AA0100150D0100150D01002A
:10001000150D0100150D0100150D0100150D010054
:10002000150D0100150D0100150D0100150D010044
:0C003000150D0100150D0100E10C010090
:1000400081F0004102E000BF83F0004330B54FEA89
:1000500041044FEA430594EA050F08BF90EA020FF6
:100060001FBF54EA000C55EA020C7FEA645C7FEA89
:10007000655C00F0E2804FEA5454D4EB5555B8BFAC
:100080006D420CDD2C4480EA020281EA030382EA1D
:10009000000083EA010180EA020281EA0303362DAF
:1000A00088BF30BD11F0004F4FEA01314FF4801C82
:1000B0004CEA113102D0404261EB410113F0004F94
:1000C0004FEA03334CEA133302D0524263EB43034B
:1000D00094EA050F00F0A780A4F10104D5F1200EE9
:1000E0000DDB02FA0EFC22FA05F2801841F1000144
:1000F00003FA0EF2801843FA05F359410EE0A5F118
:1001000020050EF1200E012A03FA0EFC28BF4CF048
:10011000020C43FA05F3C01851EBE37101F00045FE
:1001200007D54FF0000EDCF1000C7EEB00006EEB0B
:100130000101B1F5801F1BD3B1F5001F0CD3490895
:100140005FEA30004FEA3C0C04F101044FEA4452EC
:1001500012F5800F80F09A80BCF1004F08BF5FEA73
:10016000500C50F1000041EB045141EA050130BD53
:100170005FEA4C0C404141EB010111F4801FA4F1F6
:100180000104E9D191F0000F04BF01460020B1FA4B
:1001900081F308BF2033A3F10B03B3F120020CDA83
:1001A0000C3208DD02F1140CC2F10C0201FA0CF061
:1001B00021FA02F10CE002F11402D8BFC2F1200CC6
:1001C00001FA02F120FA0CFCDCBF41EA0C0190407C
:1001D000E41AA2BF01EB0451294330BD6FEA0404C5
:1001E0001F3C1CDA0C340EDC04F11404C4F12002B0
:1001F00020FA04F001FA02F340EA030021FA04F3C2
:1002000045EA030130BDC4F10C04C4F1200220FA18
:1002100002F001FA04F340EA0300294630BD21FA56
:1002200004F0294630BD94F0000F83F4801306BF1C
:1002300081F480110134013D4EE77FEA645C18BF10
:100240007FEA655C29D094EA050F08BF90EA020FA7
:1002500005D054EA000C04BF1946104630BD91EA9F
:10026000030F1EBF0021002030BD5FEA545C05D1A2
:100270004000494128BF41F0004130BD14F58004E1
:100280003CBF01F5801130BD01F0004545F0FE4155
:1002900041F470014FF0000030BD7FEA645C1ABF8A
:1002A000194610467FEA655C1CBF0B46024650EAC1
:1002B000013406BF52EA033591EA030F41F40021ED
:1002C00030BD00BF90F0000F04BF0021704730B573
:1002D0004FF4806404F132044FF000054FF0000148
:1002E00050E700BF90F0000F04BF0021704730B509
:1002F0004FF4806404F1320410F0004548BF4042DE
:100300004FF000013EE700BF42004FEAE2014FEA32
:1003100031014FEA02701FBF12F07F4393F07F4F0D
:1003200081F06051704792F0000F14BF93F07F4F3F
:10033000704730B54FF4607401F0004521F0004182
:1003400020E700BF50EA010208BF704730B54FF008
:1003500000050AE050EA010208BF704730B511F00D
:10036000004502D5404261EB41014FF4806404F145
:1003700032045FEA915C3FF4DCAE4FF003025FEAC7
:10038000DC0C18BF03325FEADC0C18BF033202EB4F
:10039000DC02C2F1200300FA03FC20FA02F001FAA9
:1003A00003FE40EA0E0021FA02F11444C1E600BF48
:1003B00070B54FF0FF0C4CF4E06C1CEA11541DBFFB
:1003C0001CEA135594EA0C0F95EA0C0F00F0DEF8C6
:1003D0002C4481EA030621EA4C5123EA4C5350EAAB
:1003E000013518BF52EA033541F4801143F48013FC
:1003F00038D0A0FB02CE4FF00005E1FB02E506F08D
:100400000042E0FB03E54FF00006E1FB03569CF0E1
:10041000000F18BF4EF0010EA4F1FF04B6F5007FE7
:1004200064F5407404D25FEA4E0E6D4146EB060659
:1004300042EAC62141EA55514FEAC52040EA5E50E2
:100440004FEACE2EB4F1FD0C88BFBCF5E06F1ED88C
:10045000BEF1004F08BF5FEA500E50F1000041EBC3
:10046000045170BD06F0004646EA010140EA020070
:1004700081EA0301B4EB5C04C2BFD4EB0C0541EA92
:10048000045170BD41F480114FF0000E013C00F3A7
:10049000AB8014F1360FDEBF002001F0004170BDCB
:1004A000C4F10004203C35DA0C341BDC04F11404E4
:1004B000C4F1200500FA05F320FA04F001FA05F270
:1004C00040EA020001F0004221F0004110EBD3703D
:1004D00021FA04F642EB06015EEA430E08BF20EA69
:1004E000D37070BDC4F10C04C4F1200500FA04F30C
:1004F00020FA05F001FA04F240EA020001F000419E
:1005000010EBD37041F100015EEA430E08BF20EA10
:10051000D37070BDC4F1200500FA05F24EEA020E58
:1005200020FA04F301FA05F243EA020321FA04F087
:1005300001F0004121FA04F220EA020000EBD3703E
:100540005EEA430E08BF20EAD37070BD94F0000F3E
:100550000FD101F00046400041EB010111F4801F72
:1005600008BF013CF7D041EA060195F0000F18BF23
:10057000704703F00046520043EB030313F4801F5F
:1005800008BF013DF7D043EA0603704794EA0C0F19
:100590000CEA135518BF95EA0C0F0CD050EA41062F
:1005A00018BF52EA4306D1D181EA030101F00041AC
:1005B0004FF0000070BD50EA410606BF10461946D4
:1005C00052EA430619D094EA0C0F02D150EA0136E0
:1005D00013D195EA0C0F05D152EA03361CBF104621
:1005E00019460AD181EA030101F0004141F0FE41C0
:1005F00041F470014FF0000070BD41F0FE4141F444
:10060000780170BD70B54FF0FF0C4CF4E06C1CEA43
:1006100011541DBF1CEA135594EA0C0F95EA0C0FF8
:1006200000F0A7F8A4EB050481EA030E52EA0335B3
:100630004FEA013100F088804FEA03334FF08055D4
:1006400045EA131343EA12634FEA022245EA111501
:1006500045EA10654FEA00260EF000419D4208BFB2
:10066000964244F1FD0404F5407402D25B084FEA5F
:100670003202B61A65EB03055B084FEA32024FF40B
:1006800080104FF4002CB6EB020E75EB030E22BF68
:10069000B61A754640EA0C005B084FEA3202B6EB28
:1006A000020E75EB030E22BFB61A754640EA5C00D7
:1006B0005B084FEA3202B6EB020E75EB030E22BF67
:1006C000B61A754640EA9C005B084FEA3202B6EB68
:1006D000020E75EB030E22BFB61A754640EADC0027
:1006E00055EA060E18D04FEA051545EA16754FEA89
:1006F00006164FEAC30343EA52734FEAC2025FEAA7
:100700001C1CC0D111F4801F0BD141EA00014FF035
:1007100000004FF0004CB6E711F4801F04BF014306
:100720000020B4F1FD0C88BFBCF5E06F3FF6AFAE22
:10073000B5EB030C04BFB6EB020C5FEA500C50F1B2
:10074000000041EB045170BD0EF0004E4EEA113135
:1007500014EB5C04C2BFD4EB0C0541EA045170BD3C
:1007600041F480114FF0000E013C90E645EA060E80
:100770008DE60CEA135594EA0C0F08BF95EA0C0FAE
:100780003FF43BAF94EA0C0F0AD150EA01347FF4F6
:1007900034AF95EA0C0F7FF425AF104619462CE7CD
:1007A00095EA0C0F06D152EA03353FF4FDAE104630
:1007B000194622E750EA410618BF52EA43067FF481
:1007C000C5AE50EA41047FF40DAF52EA43057FF411
:1007D000EBAE12E74FF0FF3C06E000BF4FF0010C1C
:1007E00002E000BF4FF0010C4DF804CD4FEA410C80
:1007F0007FEA6C5C4FEA430C18BF7FEA6C5C1BD04D
:1008000001B050EA410C0CBF52EA430C91EA030FCD
:1008100002BF90EA020F0020704710F1000F91EA2A
:10082000030F58BF994208BF90422CBFD8176FEAF8
:10083000E37040F0010070474FEA410C7FEA6C5CC6
:1008400002D150EA013C07D14FEA430C7FEA6C5CCD
:10085000D6D152EA033CD3D05DF8040B704700BFF9
:100860008446104662468C461946634600E000BF47
:1008700001B5FFF7B7FF002848BF10F1000F01BD19
:100880004DF808EDFFF7F4FF0CBF012000205DF8E4
:1008900008FB00BF4DF808EDFFF7EAFF34BF012069
:1008A00000205DF808FB00BF4DF808EDFFF7E0FF02
:1008B00094BF012000205DF808FB00BF4DF808ED53
:1008C000FFF7CEFF94BF012000205DF808FB00BFBA
:1008D0004DF808EDFFF7C4FF34BF012000205DF89C
:1008E00008FB00BF4FEA410212F5001215D211D5E4
:1008F0006FF47873B3EB625212D94FEAC12343F01D
:10090000004343EA505311F0004F23FA02F018BF9E
:10091000404270474FF00000704750EA013005D167
:1009200011F0004008BF6FF0004070474FF000002A
:10093000704700BF4A0011D212F5001211D20DD536
:100940006FF47873B3EB62520ED44FEAC12343F0D5
:10095000004343EA505323FA02F070474FF000007F
:10096000704750EA013002D14FF0FF3070474FF02E
:10097000000070474FEA4102B2F1E04324BFB3F5F3
:10098000001CDCF1FE5C0DD901F0004C4FEAC00206
:100990004CEA5070B2F1004F40EB830008BF20F0EA
:1009A0000100704711F0804F21D113F13872BCBFA4
:1009B00001F00040704741F480114FEA5252C2F1F9
:1009C0001802C2F1200C10FA0CF320FA02F018BF42
:1009D00040F001004FEAC1234FEAD32303FA0CFC95
:1009E00040EA0C0023FA02F34FEA4303CCE77FEA24
:1009F000625307D150EA01331EBF4FF0FE4040F46E
:100A00004000704701F0004040F0FE4040F400001C
:100A1000704700BF80F0004002E000BF81F000415D
:100A200042001FBF5FEA410392EA030F7FEA226C94
:100A30007FEA236C6AD04FEA1262D2EB1363C1BF24
:100A4000D218414048404140B8BF5B42192B88BF93
:100A5000704710F0004F40F4000020F07F4018BFB6
:100A6000404211F0004F41F4000121F07F4118BFD6
:100A7000494292EA030F3FD0A2F1010241FA03FC7E
:100A800010EB0C00C3F1200301FA03F100F0004366
:100A900002D5494260EB4000B0F5000F13D3B0F12E
:100AA000807F06D340084FEA310102F10102FE2A9D
:100AB00051D2B1F1004F40EBC25008BF20F001000D
:100AC00040EA03007047490040EB000010F4000FBB
:100AD000A2F10102EDD1B0FA80FCACF1080CB2EB4E
:100AE0000C0200FA0CF0AABF00EBC25052421843AD
:100AF000BCBFD0401843704792F0000F81F4000152
:100B000006BF80F400000132013BB5E74FEA410324
:100B10007FEA226C18BF7FEA236C21D092EA030F90
:100B200004D092F0000F08BF0846704790EA010F0A
:100B30001CBF0020704712F07F4F04D1400028BF37
:100B400040F00040704712F100723CBF00F5000019
:100B5000704700F0004343F0FE4040F4000070474F
:100B60007FEA226216BF08467FEA236301464202FB
:100B700006BF5FEA412390EA010F40F4800070470E
:100B80004FF0000304E000BF10F0004348BF4042B4
:100B90005FEA000C08BF704743F0964301464FF0F0
:100BA00000001CE050EA010208BF70474FF000034C
:100BB0000AE000BF50EA010208BF704711F000438D
:100BC00002D5404261EB41015FEA010C02BF84465D
:100BD0000146002043F0B64308BFA3F18053A3F5BC
:100BE0000003BCFA8CF2083AA3EBC25310DB01FA03
:100BF00002FC634400FA02FCC2F12002BCF1004F87
:100C000020FA02F243EB020008BF20F00100704717
:100C100002F1200201FA02FCC2F1200250EA4C006B
:100C200021FA02F243EB020008BF20EADC707047B1
:100C30004FF0FF0C1CEAD0521EBF1CEAD15392EABF
:100C40000C0F93EA0C0F6FD01A4480EA010C40029B
:100C500018BF5FEA41211ED04FF0006343EA5010F5
:100C600043EA5111A0FB01310CF00040B1F5000F37
:100C70003EBF490041EAD3715B0040EA010062F1E6
:100C80007F02FD2A1DD8B3F1004F40EBC25008BFD0
:100C900020F00100704790F0000F0CF0004C08BFEE
:100CA00049024CEA502040EA51207F3AC2BFD2F1BB
:100CB000FF0340EAC250704740F400004FF00003C9
:100CC000013A5DDC12F1190FDCBF00F00040704703
:100CD000C2F10002410021FA02F1C2F1200200FA41
:100CE00002FC5FEA310040F1000053EA4C0308BF08
:100CF00020EADC70704792F0000F00F0004C02BF59
:100D0000400010F4000F013AF9D040EA0C0093F0D3
:100D1000000F01F0004C02BF490011F4000F013B2D
:100D2000F9D041EA0C018FE70CEAD15392EA0C0F9B
:100D300018BF93EA0C0F0AD030F0004C18BF31F006
:100D4000004CD8D180EA010000F00040704790F0DC
:100D5000000F17BF90F0004F084691F0000F91F080
:100D6000004F14D092EA0C0F01D142020FD193EA46
:100D70000C0F03D14B0218BF084608D180EA0100CE
:100D800000F0004040F0FE4040F40000704740F0AA
:100D9000FE4040F4400070474FF0FF0C1CEAD05278
:100DA0001EBF1CEAD15392EA0C0F93EA0C0F69D0D4
:100DB000A2EB030280EA010C49024FEA402037D03F
:100DC0004FF0805343EA111143EA10130CF0004036
:100DD0008B4238BF5B0042F17D024FF4000C8B4226
:100DE00024BF5B1A40EA0C00B3EB510F24BFA3EB06
:100DF000510340EA5C00B3EB910F24BFA3EB9103D6
:100E000040EA9C00B3EBD10F24BFA3EBD10340EA2F
:100E1000DC001B0118BF5FEA1C1CE0D1FD2A3FF675
:100E200050AF8B4240EBC25008BF20F0010070472A
:100E30000CF0004C4CEA50207F32C2BFD2F1FF03CD
:100E400040EAC250704740F400004FF00003013AFE
:100E500037E792F0000F00F0004C02BF400010F4A2
:100E6000000F013AF9D040EA0C0093F0000F01F0B6
:100E7000004C02BF490011F4000F013BF9D041EAD8
:100E80000C0195E70CEAD15392EA0C0F08D142020B
:100E90007FF47DAF93EA0C0F7FF470AF084676E7DE
:100EA00093EA0C0F04D14B023FF44CAF08466EE7B7
:100EB00030F0004C18BF31F0004CCAD130F0004285
:100EC0007FF45CAF31F000437FF43CAF5FE700BFDD
:100ED0004FF0FF3C06E000BF4FF0010C02E000BF06
:100EE0004FF0010C4DF804CD4FEA40024FEA4103A8
:100EF0007FEA226C18BF7FEA236C11D001B052EA5E
:100F0000530C18BF90EA010F58BFB2EB030088BF23
:100F1000C81738BF6FEAE17018BF40F00100704792
:100F20007FEA226C02D15FEA402C05D17FEA236C74
:100F3000E4D15FEA412CE1D05DF8040B704700BFBB
:100F4000844608466146FFE70FB5FFF7C9FF002852
:100F500048BF10F1000F0FBD4DF808EDFFF7F4FF8B
:100F60000CBF012000205DF808FB00BF4DF808ED24
:100F7000FFF7EAFF34BF012000205DF808FB00BF47
:100F80004DF808EDFFF7E0FF94BF012000205DF869
:100F900008FB00BF4DF808EDFFF7D2FF94BF01201A
:100FA00000205DF808FB00BF4DF808EDFFF7C8FF13
:100FB00034BF012000205DF808FB00BF4FEA40026B
:100FC000B2F1FE4F0FD34FF09E03B3EB12620DD977
:100FD0004FEA002343F0004310F0004F23FA02F0E1
:100FE00018BF404270474FF00000704712F1610F88
:100FF00001D1420205D110F0004008BF6FF000405F
:1010000070474FF00000704742000ED2B2F1FE4F21
:101010000BD34FF09E03B3EB126209D44FEA0023C7
:1010200043F0004323FA02F070474FF0000070478E
:1010300012F1610F01D1420202D14FF0FF3070472F
:101040004FF00000704700BF73B96AB9002908BFAC
:101050000028BCBF00204FF00041C4BF6FF000412A
:101060004FF0FF3000F052B882B0EC462DE900504E
:1010700000F01CF8DDF804E002B00CBC704700BFC3
:101080004BB942B9002908BF002802D04FF0FF3108
:10109000084600F03BB882B0EC462DE9005000F065
:1010A0001DF8DDF804E002B00CBC70472DE9704F6C
:1010B000089E14461D468046894600F029F804FB28
:1010C00001F3A4FB00AB00FB05329344B8EB0A0824
:1010D00069EB0B09C6E90089BDE8708F2DE9704FF7
:1010E000089E14461D468046894600F061F900FBC3
:1010F00005F5A0FB04AB04FB0154A344B8EB0A08BC
:1011000069EB0B09C6E90089BDE8708F704700BF25
:1011100000292DE9F00FC0F2A1800024002BC0F2BD
:101120009880154606460F46002B3FD18A4258D973
:10113000B2FA82F34BB1C3F1200201FA03F720FAAD
:1011400002F29D4000FA03F61743290CB7FBF1F2B7
:1011500001FB1277A8B200FB02F34FEA164C4CEAEF
:101160000747BB4209D97F1902F1FF3C80F0058196
:10117000BB4240F20281023A2F44FF1AB7FBF1F35F
:1011800001FB137100FB03F0B6B246EA014188424D
:1011900008D9491903F1FF3780F0F180884240F205
:1011A000EE80023B43EA0242002303E08B420AD96D
:1011B00000231A461046194614B1404261EB410122
:1011C000BDE8F00F7047B3FA83F8B8F1000F40F0B4
:1011D00088808B4202D3824200F2E2800023012207
:1011E000E8E712B90123B3FBF2F5B5FA85F2002A5C
:1011F0003AD17F1B280C1FFA85FC0123B7FBF0F1C5
:1012000000FB11770CFB01F24FEA164848EA07474A
:10121000BA4207D97F1901F1FF3802D2BA4200F26F
:10122000C4804146BF1AB7FBF0F200FB12700CFB02
:1012300002FCB6B246EA0040844507D9401902F1E3
:10124000FF3702D2844500F2AE803A4642EA0142BC
:10125000B0E7E443524263EB430362E7404261EB91
:1012600041014FF0FF3459E79540C2F1200927FAB8
:1012700009F126FA09F99740280CB1FBF0F800FBB8
:1012800018111FFA85FC0CFB08F349EA07094FEA1D
:10129000194747EA01418B4206FA02F608D9491973
:1012A00008F1FF327AD28B4278D9A8F1020829449A
:1012B000C91AB1FBF0F300FB13170CFB03F21FFA82
:1012C00089F949EA0747BA4207D97F1903F1FF3183
:1012D00060D2BA425ED9023B2F44BF1A43EA0843A8
:1012E0008CE7C8F1200225FA02F103FA08FC27FA7C
:1012F00002F320FA02F207FA08F741EA0C0C4FEA6F
:101300001C49B3FBF9F109FB11331FFA8CFA0AFBF4
:1013100001FB17433A0C42EA03439B4505FA08F0E8
:1013200008D913EB0C0301F1FF3235D29B4533D9B9
:1013300002396344CBEB0303B3FBF9F209FB12332D
:101340000AFB02FABFB247EA0347BA4508D917EBCE
:101350000C0702F1FF331BD2BA4519D9023A674490
:1013600042EA0145A5FB0001CAEB07078F424FF097
:1013700000030AD305D02A461CE76246FDE63B4639
:1013800010E706FA08F68642F5D26A1E002311E736
:101390001A46E5E70B46A0E71146CBE7904687E7FC
:1013A0004346424606E7023A50E702392F4439E7FE
:1013B0002DE9F00F144605460E46002B43D18A4214
:1013C00053D9B2FA82F757B1C7F1200620FA06F6D0
:1013D00001FA07F302FA07F400FA07F51E43210C9D
:1013E000B6FBF1F201FB1266A0B200FB02F32F0C78
:1013F00047EA0646B34209D9361902F1FF3780F0B1
:10140000FD80B34240F2FA80023A2644F61AB6FB57
:10141000F1F301FB136100FB03F0ADB245EA0141BA
:10142000884208D9091903F1FF3680F0E980884223
:1014300040F2E680023B43EA02420023104619468E
:10144000BDE8F00F70478B424CD8B3FA83F6002EFC
:101450004FD18B4202D3824200F2DD80BDE8F00F13
:101460000023012210461946704712B90124B4FB2B
:10147000F2F4B4FA84F2002A40F08280091B260CB0
:10148000A7B20123B1FBF6F006FB101107FB00F237
:101490004FEA154C4CEA01418A4207D9091900F17B
:1014A000FF3C02D28A4200F2C8806046891AB1FB32
:1014B000F6F206FB121107FB02F7ADB245EA014551
:1014C000AF4208D92C1902F1FF3180F09B80A7426E
:1014D00040F29880023A42EA004210461946BDE8BE
:1014E000F00F704700231A4610461946BDE8F00F6A
:1014F0007047C6F1200522FA05F703FA06F421FA2F
:1015000005F301FA06FB20FA05F53C434FEA1448BF
:10151000B3FBF8FC08FB1C331FFA84F909FB0CFA37
:1015200045EA0B0B4FEA1B4545EA03439A4502FA8D
:1015300006F204D91B190CF1FF356FD3AC46CAEB88
:101540000303B3FBF8F508FB153309FB05F91FFA94
:101550008BFB4BEA0347B94504D93F1905F1FF332B
:1015600062D31D4645EA0C4CACFB0223C9EB0707CE
:101570009F424FF000054AD346D062462B465DE7B6
:101580009440C2F1200921FA09FC914020FA09F99E
:10159000260CBCFBF6F806FB18CCA7B207FB08F339
:1015A00049EA01094FEA194141EA0C4C634500FA46
:1015B00002F509D91CEB040C08F1FF323BD263455C
:1015C00039D9A8F10208A444C3EB0C0CBCFBF6F318
:1015D00006FB13C107FB03F21FFA89F949EA01412F
:1015E0008A4207D9091903F1FF3022D28A4220D951
:1015F000023B2144891A43EA084343E73A4605E798
:10160000334618E70A4666E7B0409042B5D20CF17F
:10161000FF32002312E7334632460FE79A458DD951
:10162000ACF1020C23448AE7B9459AD9023D27441C
:1016300098E70346DEE79046C6E70238214435E7DF
:10164000844641EA000313F0030349D1403A23D30F
:101650000B6803604B6843608B688360CB68C36032
:101660000B6903614B6943618B698361CB69C3611A
:101670000B6A03624B6A43628B6A8362CB6AC36202
:101680000B6B03634B6B43638B6B8363CB6BC363EA
:1016900040304031403ADBD230320BD30B6803602C
:1016A0004B6843608B688360CB68C3601030103137
:1016B000103AF3D20C3205D351F8043B40F8043B06
:1016C000043AF9D2043208D0D2071CBF11F8013B0A
:1016D00000F8013B01D30B8803806046704700BFD0
:1016E000082A13D38B07B1D010F00303AED0C3F197
:1016F0000403D21ADB071CBF11F8013B00F8013BC1
:10170000A4D331F8023B20F8023B9FE7043AD9D337
:10171000013A11F8013B00F8013BF9D20B78037054
:101720004B7843708B7883706046704780EA010C79
:101730001CF0030F37D110F0030C20F0030021F050
:10174000030150F8042B08BF51F8043B0ED08CF075
:10175000030C6FF07F434FEACC0C23FA0CFC51F8DA
:10176000043B42EA0C0243EA0C0300BFA2F1013C35
:101770009A4201BF2CEA020C1CF0803F50F8042B67
:1017800051F8043BF2D04FEA02604FEA12220128DE
:1017900028BFB0EB036F08BF1B0AF4D003F0FF03B0
:1017A000000EC01A704710F0030F0AD010F8012B7A
:1017B00011F8013B012A28BF9A42F4D0A2EB0300A2
:1017C00070474DF8045D50F8042B01F0030521F03B
:1017D000030151F8043B022D26D04DD822F07F455D
:1017E000B5EB132FA2F1013C2CEA020C0DD11CF039
:1017F000803C08BF51F8043B0AD185EA0205B5EBED
:10180000036F0CD150F8042BE8E74FEA13235BE099
:101810003CF07F4C54D10B784FEA126554E04FEA0C
:10182000126503F0FF034FE04FEA0245A2F1013CCD
:101830004FEA15452CEA020CB5EB134F18D11CF0FA
:10184000803C08BF51F8043B07D185EA0205B5EB9F
:10185000034F09D150F8042BE6E75FEA0C4C2FD177
:101860000B884FEA12452FE04FEA03434FEA124537
:101870004FEA134328E000BF02F0FF05B5EB136FFA
:10188000A2F1013C2CEA020C0DD11CF0803C08BFF7
:1018900051F8043B0AD185EA0205B5EB032F0AD1C2
:1018A00050F8042BE8E74FEA13630DE012F0FF0F46
:1018B00006D051F8043B4FEA122523F07F4303E0A2
:1018C0004FF0000020BC704705F0FF0203F0FF005E
:1018D000012828BF904204BF2D0A1B0AF4D0A2EBB6
:1018E000000020BC704700BF38B51A4C054623687D
:1018F000D3F8AC309847236800201B6F984702F05C
:1019000023FB03F081FB03F0ACFF23685B6F0BB19B
:101910009B69984723689B6F0BB19B69984702F0BE
:1019200016FB0D4B1B681B78062B01D001F0A4F8A9
:1019300023682846D3F88830984700F0F5FE02F077
:101940000FFA2368D3F8B83098472846BDE83840E6
:1019500003F07ABF20250020981C002070B500F00D
:1019600027FE01F051FE03F0F3FF484D686201F0DD
:1019700057F800284BD0464C0026204604F030FD96
:10198000FEF7F8FF6863204604F052FDFEF7F2FF11
:1019900084F87D60A863D4F88400FEF7A3FC0022DD
:1019A0003C4BFEF72FFEFEF7E5FF84F86D60E86321
:1019B000606FFEF797FC0022364BFEF723FEFEF722
:1019C000D9FF84F85D606864606EFEF78BFC0022CE
:1019D000304BFEF717FEFEF7CDFFD4F8A430A86415
:1019E00084F89D60D4F8B40084F8AD60A5F8643044
:1019F000FEF778FC0022274BFEF704FEFEF7BAFF45
:101A00002866284602F078F9012102F0D1F902F0A7
:101A100099F910B101F004F8A8BB01F001F808B180
:101A200000F040FC08F0F8FE1B4B1A681C46801AB8
:101A3000B0F57A7F0AD900F0F3FF10B101F0FAFD9A
:101A400001E001F0F6FD08F0E7FE206002F07BFA0D
:101A500008F0E2FE114B1A681C46801AB0F57A7F36
:101A60000BD903F08DFB03F0C3F900F0D9FF08B1E7
:101A700002F056FD08F0D0FE206003F029FBBDE81F
:101A8000704000F04BBC00F031FBC6E7C8160020E8
:101A9000001F002000005940481700204417002074
:101AA00010B5154C02F0CEF8FFF758FF2368D3F8B5
:101AB0008430984701F0C0FD02F048FA03F0D0FEF0
:101AC00003F0B1FE2368DB69984723685B6F0BB1B5
:101AD0005B69984723689B6F0BB15B6998472368E4
:101AE000DB6F0BB15B69984700F062FE2368D3F8A7
:101AF000B430984710BD00BF20250020F0B585B058
:101B000003F092FE7D4C7E4F2368B870DB6A9847E5
:101B100006467C4809F01EF97B4901A809F078FBCC
:101B200001A9784809F005F901A809F0C5FA21686A
:101B30007448013109F005F9744901A809F068FBFE
:101B400001A9704809F0F5F801A809F0B5FA236871
:101B50009B6A98471022014601A809F036FB01A9AB
:101B6000684809F003F901A809F0A6FA684901A834
:101B700009F04EFB01A9634809F0F8F801A809F043
:101B80009BFA604808F0E4FE9EB162495D4809F0A6
:101B9000F7F8614901A809F03BFB01A9594809F090
:101BA000C8F801A809F088FA564831680A2209F0F5
:101BB0004FF9236801A85B6B984701A9514809F0C8
:101BC000D5F801A809F078FA544901A809F020FBDA
:101BD00001A94C4809F0ADF801A809F06DFA236895
:101BE0004F4D9B6B98470A220146464809F030F951
:101BF000236801A81B6B984701A9424809F0B6F871
:101C000001A809F059FA43493E4809F0B9F83D489E
:101C100008F09EFE00F082FE2368D3F8B0309847AB
:101C200023689B6A984720F07F40E86201F076FEC7
:101C3000F870642008F000FE00F04AFC2368787118
:101C4000D3F880309847B87101F09EF83871354F5D
:101C50003B68DA7885F84C205A7885F828205A7A3B
:101C60005B7AC2F38012C3F3C01385F8542085F861
:101C7000553000F069FD00F0F5FA236800201B6F75
:101C8000984701F0CFFC02F060F923689B6F0BB11D
:101C90001B69984723685B6F0BB11B69984703F07A
:101CA000C1FD03F0DCFD03F0A7F94FF47A7008F0F2
:101CB000C3FD3368012B01D001F0BAFC02F040F9FA
:101CC000236830681B6C98473B681B78022B0BD04D
:101CD000042B01D0012B02D103F0C0FD04E0074B1F
:101CE00001201B681B6F984723689B6998472368EE
:101CF000D3F8A830984705B0F0BD00BF20250020DC
:101D000020050020742A0020DCAA0100E4AA0100BA
:101D1000FAAA01004AB1010036AB010045AB01004F
:101D2000C8160020981C002010B50C468047A0471C
:101D300011F09EFD0FF08EFEF9E7000000B591B0A6
:101D400007F0E6FB01A800213C22082309F0B2FFBE
:101D50000D4B01A91B680D48023B07934FF400632C
:101D600009930B4B1A685B6805920693094B1A6836
:101D7000049B5A60002209F0B7FF0FF069F80020B9
:101D800011B05DF804FB00BFD4D80100291D00008C
:101D90002C0500203405002000207047034610B5B4
:101DA000C86B8C6ED96BFEF739FEFFF707F940F26E
:101DB000562300F22B1098420ED82046FFF7FEF86B
:101DC000B0F5C87F0ADBB0F52F7F09DBB0F57A7F6D
:101DD000ACBF0020012010BD002010BD032010BDAD
:101DE000022010BD002070472DE9F04F044687B057
:101DF000C86B8846E16BFEF711FEFFF7DFF840F293
:101E0000562300F22B10984200F2ED80A06CFEF7F2
:101E10007BFA8246606C8B46FEF776FA02460B46EA
:101E200000207D49FEF710F971A3D3E90023FEF7E6
:101E3000BFFACDE9020112F0FFFE0446D8F84800CF
:101E40000D46FEF761FACDE90001D8F84400FEF72F
:101E50005BFA02460B4600206F49FEF7F5F864A3D3
:101E6000D3E90023FEF7A4FACDE9040112F0E4FE61
:101E7000224606460F462B4650465946FEF798FA2C
:101E8000324604460D463B46DDE90001FEF790FA76
:101E900002460B4620462946FEF7D6F8FEF76AFDB5
:101EA0008146DDE9020112F09BFF04460D46DDE9A3
:101EB000040112F095FF224606462B460F46504677
:101EC0005946FEF775FA324604460D463B46DDE9B3
:101ED0000001FEF76DFA02460B4620462946FEF742
:101EE000B3F8FEF747FD494604464846FEF7A0FE14
:101EF000214605462046FEF79BFE01462846FEF792
:101F00008FFDFEF701FA13F02FF93BA3D3E900236D
:101F1000FEF74EFAFEF72EFD06462046FEF7F4F9D0
:101F2000044648460D46FEF7EFF902460B462046AA
:101F3000294612F09FFF0022384BFEF739FA30A3F2
:101F4000D3E90023FEF75EFBFEF714FD3449044697
:101F5000FFF716F838B12046FEF7D6F902460B46D1
:101F600000202D4907E02046FEF7CEF902460B4639
:101F700025A1D1E90001FEF767F8044630460D4679
:101F8000FEF7C2F922A3D3E90023FEF7A1FC58B360
:101F900029462046FEF7EEFCD8F86C10FEF73EFD11
:101FA000204920F00040FEF7E1FFE8B13146D8F8C3
:101FB0006800FEF7F1FE1C490446FEF7D7FF70B932
:101FC00020461A49FEF7D2FF58B9204618494FF06B
:101FD0000105FEF7CBFF00B90546E8B204E0032097
:101FE00002E0022000E0002040B207B0BDE8F08F20
:101FF000399D52A246DF913FCF16AD2F5476E03F78
:10200000182D4454FB2109400000000000207C40B2
:102010009A9999999999B93F0080564000806640F5
:102020000000B44200002041000010410000504177
:1020300000009841AFF300802DE9F043DFF8A8904D
:1020400085B08046D9F83400FEF75EF90646D9F827
:1020500038000F46FEF758F90446D8F834000D460C
:10206000FEF752F9CDE90001D8F83800FEF74CF937
:1020700022462B46CDE902013046394604F054F899
:10208000FEF778FCC8F86800D9F83400FEF73CF990
:102090000646D9F838000F46FEF736F90446D8F858
:1020A00034000D46FEF730F9CDE90001D8F83800CC
:1020B000FEF72AF92B46CDE9020122463046394681
:1020C00004F0DAF8FEF756FC064BC8F86C001B6803
:1020D00023B148464146984788F8700005B0BDE8EE
:1020E000F08300BF4C170020C81600207FB5514D6B
:1020F0002B68587801F03EFE0021222834BF0446A8
:10210000222422224C4815F05BFB22464A484B49C8
:10211000FFF796FA2B681B7A9A073AD5484901A827
:1021200009F076F801A9474808F003FE01A808F075
:10213000C3FF03F00DFC0A220146424808F070FE7E
:10214000414901A809F064F801A93E4808F0F1FDF1
:1021500001A808F0B1FF224601A8374901F0AEFB03
:1021600001A9384808F0E5FD01A808F0A5FF3649A7
:1021700001A809F04DF801A9324808F0DAFD01A8DC
:1021800008F09AFF314B2F4893F900100A2208F00B
:102190003DFE2A482E49224615F07CFA78B92B6874
:1021A0001B7A9B0744D501A82A4909F031F801A9F7
:1021B000244808F0DBFD01A808F07EFF38E0264B3C
:1021C0001B68002B34D01C4C1C48244922469847DD
:1021D00070B31E4B20461B7884F86630FFF72CFF47
:1021E000E56A00231E497C2202FB0310C46A0E46E6
:1021F000AC4208D190F8715000F170040E49FFF71D
:102200001FFA657014E00133082BEBD1002403F0B2
:102210009FFB7C2202FB04635D6A401B0A2804DDED
:1022200018460549FFF70CFA02E00134082CEED1FC
:1022300004B070BD981C0020B01B0020D4220020E8
:1022400061AB0100742A002067AB0100102300205D
:102250001423002069AB0100FC220020C8160020D6
:1022600050170020094B1B685A7A094BC2F3C2026F
:10227000022A04D0032A04D02AB9064A04E0064AF6
:1022800002E0064A00E0064A1A607047981C0020E7
:102290004C170020991D0000E91D0000E51D0000FD
:1022A0009D1D000070B508F0B7FA184B1A681D465E
:1022B000801AB0F5FA6F27D9154C04F57876E36AE1
:1022C000BBB1144B5A6A636AD21A0A2A11DC012A7A
:1022D00002DD2046FFF7B0FE94F87130DB070DD425
:1022E00001F02FFE94F8713043F0010384F871304F
:1022F00004E0204608497C22FFF7A2F97C34B4426E
:10230000DDD108F089FA286070BD00BF301B0020C5
:1023100050170020C8160020341B002038B50B4C85
:1023200004F57875236863B1094B5A6A54F8083C80
:10233000D31A0A2B05DDA4F12C0006497C22FFF7F5
:102340007FF97C34AC42EDD138BD00BF7C17002052
:10235000C8160020341B0020014805F0FBBB00BF5D
:10236000301C0020014805F019BC00BF301C0020C3
:102370000146014805F0E4BC301C0020014805F08E
:10238000AFBA00BF301C002030B5334C85B001A877
:10239000324908F03DFF324D01A9204608F0C9FC42
:1023A00001A808F089FE284605F0D4FB0222014668
:1023B000204608F0B5FD01A82A4908F029FF01A927
:1023C000204608F0D3FC01A808F076FE01A82649B3
:1023D00008F01EFF01A9204608F0ABFC01A808F098
:1023E0006BFE284605F0DAFB02220146204608F083
:1023F00097FD01A81D4908F00BFF01A9204608F030
:10240000B5FC01A808F058FE01A8194908F000FF22
:1024100001A9204608F08DFC01A808F04DFE2846D1
:10242000144905F08DFC02220146204608F078FD93
:1024300001A8114908F0ECFE01A9204608F096FC1D
:1024400001A808F039FE204608F084FC4FF4FA7029
:1024500008F0F2F905B030BD742A00208EAB0100FF
:10246000301C00209DAB0100A1AB0100ADAB010011
:10247000B1AB010000507D44C4AB010008B50D486C
:102480007721582205F0E4FA90B90A4876215822BB
:1024900005F0DEFA60B907487721602205F0D8FA26
:1024A00030B9044876216022BDE8084005F0D0BA72
:1024B000012008BD301C002008B5034A034B1360FF
:1024C000DB68984708BD00BF741C00203805002059
:1024D00030B5294B85B01B68284CD3F89C30984701
:1024E00010B1FFF7E9FF70B90025254901A8256063
:1024F00008F08EFE01A9234808F038FC01A808F076
:10250000DBFD284635E021681E48013108F019FC42
:102510001D4901A808F07CFE01A91A4808F026FC14
:1025200001A808F0C9FD23681B6998472368DB6987
:102530009847164B186023681B6A9847144B18601D
:1025400008F06AF9134B1860236813489B69984791
:10255000124B1860124B1860124B186408F05CF9AB
:10256000114B00221860114B1A605A609A60236860
:10257000187805B030BD00BF20250020741C002055
:10258000C7AB0100742A0020FCAB0100641C0020D2
:102590006C1C00202C1C002000507D44701C00206E
:1025A000781C0020C8160020681C00207C1C00201D
:1025B0002DE9F04F4E4E85B03368002B00F0888037
:1025C00008F02AF94B4B1A689846801AB0F5A77F95
:1025D00068D3336848489B699847484FDFF83C9177
:1025E0003A68474DDFF838A1D9F800100192CAF8CF
:1025F00000002864FEF712FA834608F00DF9D8F8B7
:102600000030404CC01AFEF7BBFA01465846FEF7B0
:10261000C3FB3D49FEF70CFB019A002144F8220060
:102620002068FEF7FDF96168FEF7FAF9A168FEF788
:10263000F7F93649FEF7B0FB8346FDF765FE26A3A2
:10264000D3E90023CDE90201FEF742F92C4610B987
:10265000C4F850B00AE0DDE9020121A3D3E9002368
:10266000FEF718F90028F3D000232B65206DFDF745
:102670004BFE1DA3D3E90023FDF79AFEFEF77AF97E
:10268000DAF800302065C9F8003008F0C5F83B687A
:102690000322013393FBF2F202EB42029B1AC8F8C9
:1026A00000003B6008F0B8F8194C40F6B8322368D7
:1026B000C01A90420CD93368DB699847154B1860F3
:1026C00033681B6A9847144B186008F0A5F820601F
:1026D00005B0BDE8F08F00BF9A9999999999B9BF53
:1026E0009A9999999999B93FDE567A6D369B6840C7
:1026F000741C0020681C002000507D44881C0020B1
:10270000C81600207C1C002000007A4400004040D5
:102710002C1C0020641C00206C1C0020781C002055
:10272000701C0020AFF3008008B5034B1B680BB191
:102730005B69984708BD00BF741C0020014805F084
:102740006FB800BF301C002010B5084C2368D3F8C8
:102750008C30984723680020D3F890309847044B7A
:10276000186008F059F8034B186010BD20250020B0
:10277000941C00208C1C0020014B1868704700BF7F
:10278000941C002008B5034B01201B68D3F890303F
:10279000984708BD2025002008B5034B02201B6880
:1027A000D3F89030984708BD202500200000000095
:1027B00070B508F031F81C4B41F288311A681E469A
:1027C000801A884228D9194B00201B68184CD3F86E
:1027D000903098470546FDF797FD11A3D3E90023F4
:1027E000FEF776F8A8B1FFF7D7FF01462846FEF7B7
:1027F000BDFB70B12268022A03DD0720FFF774F8E1
:1028000001E0013222600B4B1D6008F005F83060DA
:1028100070BD00232360F6E770BD00BFAFF30080FA
:10282000CDCCCCCCCCCCFC3F8C1C00202025002077
:10283000901C0020941C002010B5274B27496022D3
:1028400083E80600264A0020127818721873587C14
:102850000121102A14BF0C46052400F0F8005C7218
:1028600061F3C50014BF0C460F249972DC725874D2
:102870000AB95A7301E002215973D973197C0E2ADF
:1028800001F0F80141F00D01197406D0A2F1110117
:10289000012994BF0420012000E00520197C102AA2
:1028A00060F347111974997C01F0C0016FF387112F
:1028B0009974597C01F0BF016FF3C71159744FF03F
:1028C000000114BF0A460422DA7419759961D961AE
:1028D0001962596210BD00BF9C1C0020DADEBABA32
:1028E0002005002010B50024094B21461A5D094837
:1028F000013404F070F8282CF6D1074B02201B6835
:102900005B6E9847BDE81040024804F073B800BF02
:102910009C1C002080250020202500207FB5314C04
:102920002820236826461B6E984700BB2E4901A825
:1029300008F06EFC01A92D4808F0FBF901A808F089
:10294000BBFB0A222821294808F080FA284901A85F
:1029500008F05EFC01A9254808F008FA01A808F073
:10296000ABFB224807F0F4FF224807F065FF002484
:102970002146214804F024F8204D28550134282C04
:10298000F6D12B681E4A01A8934201D01D4913E0DD
:102990001D4908F03DFC01A9144808F0CAF901A836
:1029A00008F08AFB114869680A2208F051FA6B683E
:1029B000602B0ED0154901A808F02AFC01A90B488C
:1029C00008F0D4F901A808F077FBFFF735FF0120E4
:1029D00000E000200E4A0F4B1A6033685B6E984788
:1029E00004B070BD2025002025AC0100742A002011
:1029F00042AC010040420F00802500209C1C0020BA
:102A0000DADEBABA54AC0100A0AC0100B1AC0100EE
:102A1000A41C0020981C00200120704770477047BC
:102A200038B5144C2378D3B194F87C30BBB194F80A
:102A30003C30A3B107F0F0FE636B40F6AC55C01A12
:102A4000A8420CD894F87C304BB107F0E5FED4F8DE
:102A50008030C01AA84202D894F83C300BB900204C
:102A600038BD07F0D9FEA36CC01AA842F7D80120E0
:102A700038BD00BF001F002008B5034B1B680BB119
:102A8000DB68984708BD00BF901E00202DE9F34782
:102A9000234D2B6823B9234C94F84C304BB93BE0C1
:102AA00007F0BAFE2B684EF66022C01A9042F2D8A8
:102AB00032E094F84D307BB307F0AEFEA36DC01A40
:102AC000B0F57A7F28D804F14C0003F01FFD824650
:102AD00004F14C0003F024FD814604F14C0003F0A6
:102AE0002DFD074604F13C0003F006FD064604F107
:102AF0003C0003F0F5FC804604F13C0003F0E4FCEC
:102B0000494601903A4650463346CDF8008002F0DF
:102B100057FF07F081FE286002B0BDE8F08700BFD4
:102B200020200020001F002070B53C4C3C4D20466A
:102B300003F02EFA21462A4601233A4803F010FFFB
:102B400021462A460223384803F00AFF21462A4636
:102B50000323364803F004FF21462A460423344861
:102B600003F0FEFE21462A460523324803F0F8FE14
:102B700021462A460623304803F0F2FE21462A4623
:102B800007232E4803F0ECFE21462A4608232C4852
:102B900003F0E6FE21462A4609232A4803F0E0FE18
:102BA00021462A460A23284803F0DAFE21462A460F
:102BB0000B23264803F0D4FE21462A460C23244842
:102BC00003F0CEFE21462A460D23224803F0C8FE1C
:102BD00021462A460E23204803F0C2FE21462A46FB
:102BE0000F231E4803F0BCFE21462A4610231C4832
:102BF00003F0B6FE21462A4611231A4803F0B0FE20
:102C000021462A461223184803F0AAFE21462A46E6
:102C100016481323BDE8704003F0A2BE001F002039
:102C2000F9AC0100F4200020C0200020EC1F00209F
:102C3000F41D00208C200020CC1E0020C01D002090
:102C4000C8210020FC2100205C1E00205C21002007
:102C500030220020981E00202821002094210020EE
:102C6000281E00202420002064220020582000205C
:102C70002DE9F04706469246884611B90020BDE886
:102C8000F0870B78002BF9D0394802F0B4FE3848B1
:102C900002F0B2FE002803DD354802F0AFFEF6E791
:102CA00007F0BAFD40F6B837002E044618BF4FF4BF
:102CB000FA6707F0B1FD001BB842DFD22C4802F0E2
:102CC0009DFE0A2804D007F0A7FD001BB842F5D3EB
:102CD000052007F0B1FD8EB1254D284602F08CFE8F
:102CE0000028E6DC304614F0D7FE2B6802465B680D
:102CF000284631469847284602F07DFEBAF1000F7B
:102D00000CD007F089FD0446194802F077FE0A2826
:102D100004D007F081FD001BB842F5D34FF0000945
:102D200007F07AFD001BB84215D2114802F066FE8A
:102D3000C5B2284614F050FC18B90D2D01D00A2D4B
:102D4000EED1B9F1FA0F06D00A4B0A2D09F803505B
:102D500009F10109E4D1404614F09EFE41460246C5
:102D6000044814F0C7FE0028A3D10120BDE8F08775
:102D70008C230020C41C0020002002490246FFF7DB
:102D800077BF00BFFFAC0100194B70B51B684FF453
:102D90001650DB6E9847174B1B7803F0F702032A97
:102DA00003D00E2B01D0122B0AD10021124802F0C1
:102DB00031FE114802F01FFE4FF4FA7007F03CFD9F
:102DC0000E4E0F4D3560FFF7D7FF044670B1012856
:102DD00014BF33682B4633600BB15B689847094BCF
:102DE0001B681A7A084BC2F342121A70204670BD53
:102DF00020250020200500208C230020901E00208C
:102E000084AE0100981C0020982200201FB50F4CB2
:102E1000204607F09FFF01A80D4908F0F9F901A924
:102E2000204607F0A3FF01A808F046F9204607F066
:102E300091FF204607F08CFD01F086F800F090FF2E
:102E4000044B1B685B6A984704B010BD742A0020CD
:102E500002AD0100202500202DE9F047A2B0724DFF
:102E60002B685B6FB3B1DB699847002812DD2B68D4
:102E70005B6F1B6A9847052204466C4B1A70601CF6
:102E8000EDD0204614F0A8FB48BB0D2C27D00A2C0F
:102E9000E5D124E02B689B6F1BB1DB6998470028C4
:102EA00015DC634807F082FD002805DD604807F067
:102EB000B6FD01220446E0E75E4802F09DFD0028D1
:102EC00040F37F835B4802F099FD0446D7E7564BF9
:102ED0001B689B6F1B6A984704220446CDE7DFF806
:102EE0007481554FD8F80030E1B25448F95403F0DA
:102EF000A3FCD8F800203E46BB5C0D2B40F052836B
:102F0000002800F04F834E4C131F2068002B17DB66
:102F1000017A8E46C90711D5F15C24290ED14649A4
:102F2000194491F801C0BCF1470F07D1D21ACEF372
:102F300042100132012302F069F801E0013BE5E7AC
:102F4000404E96F82530002B00F02C834FF00009FE
:102F500006F110003C49032286F8259014F0CAFDC2
:102F600020B92B68D3F8AC30984719E306F110006C
:102F70003649032214F0BEFD18B90520FEF7B4FC53
:102F800010E3337C3F2B67D122684021137812A8CD
:102F900000935378019393780293D3780393537AF1
:102FA000C3F3C20304931379059353790693D3793A
:102FB0000793137A03F001030893137AC3F34003D2
:102FC0000993137AC3F380030A93137AC3F3C003FC
:102FD0000B93137A5B090C93937A03F007030D9319
:102FE000937AC3F3C2030E93537AC3F380130F9300
:102FF000537ADB091093D37A154A1193012314F005
:103000007FFC12A814F048FDC0F1400112A801F0A5
:10301000DBFF12A814F040FD044B024612A91878F9
:103020004B4601F0F3FFBDE220250020982200204E
:10303000742A00208C230020C41C0020001F0020C4
:10304000981C0020F42000202AAD01002EAD0100C4
:1030500032AD01009021002006F1100014F0A6FA14
:103060000128064640F09E82B24890F82530D3B140
:1030700080F825901030D4F800A014F097FAAE49EB
:103080008AF8000012A808F0C3F812A9AB4807F0AC
:1030900050FE12A808F010F82368A84819780A22F0
:1030A00007F0CAFE3346A64890F82520CAB100238F
:1030B00080F825301030266814F078FAA149707035
:1030C00012A808F0A5F812A99C4807F032FE12A831
:1030D00007F0F2FF2368994859780A2207F0ACFEFE
:1030E0000123994890F82520CAB1002380F82530A3
:1030F0001030266814F05AFA9449B07012A808F0FB
:1031000087F812A98D4807F014FE12A807F0D4FF23
:1031100023688A4899780A2207F08EFE01238C489A
:1031200090F82520CAB1002380F825301030266899
:1031300014F03CFA8749F07012A808F069F812A957
:103140007E4807F0F6FD12A807F0B6FF23687B481B
:10315000D9780A2207F070FE01237F4890F82520D5
:10316000F2B1002380F825301030266814F01EFAE2
:10317000737A7A4960F3C503737212A808F048F8AD
:1031800012A96E4807F0D5FD12A807F095FF236835
:103190006A48597A0A22C1F3C20107F04DFE0123A1
:1031A0006F4890F82520CAB1002380F825301030F0
:1031B000266814F0FBF96B49307112A808F028F862
:1031C00012A95E4807F0B5FD12A807F075FF236845
:1031D0005A4819790A2207F02FFE0123624890F815
:1031E0002520CAB1002380F825301030266814F05D
:1031F000DDF95E49707112A808F00AF812A94F486B
:1032000007F097FD12A807F057FF23684B4859793C
:103210000A2207F011FE0123554890F82520CAB173
:10322000002380F825301030266814F0BFF951498A
:10323000F07112A807F0ECFF12A9404807F079FDE1
:1032400012A807F039FF23683C48D9790A2207F011
:10325000F3FD0123484890F825200AB3002380F8A5
:1032600025301030266814F0A1F9337A003018BFE9
:10327000012060F300033372404912A807F0C8FF31
:1032800012A92E4807F055FD12A807F015FF236874
:103290002A48197A0A2201F0010107F0B7FD01233B
:1032A000374890F825200AB3002380F825301030E5
:1032B000266814F07BF9337A003018BF012060F3E0
:1032C000410333722F4912A807F0A2FF12A91B482D
:1032D00007F02FFD12A807F0EFFE23681748197AB0
:1032E0000A22C1F3400107F091FD0123264890F81E
:1032F0002520002A51D0002380F825301030266880
:1033000014F054F9337A003018BF012060F38203BF
:1033100033721E4912A807F07BFF12A9074807F075
:1033200008FD12A807F0C8FE23680448197A0A228B
:103330002EE000BFC020002073AD0100742A0020E1
:10334000EC1F00207BAD0100F41D002087AD0100C3
:103350008C20002091AD0100CC1E00209DAD01000D
:10336000C01D0020A6AD0100C8210020B1AD0100A4
:10337000FC210020BBAD01005C1E0020C6AD010099
:103380005C210020D3AD010030220020E3AD01001C
:10339000C1F3800107F03AFD01238B4890F8252006
:1033A0000AB3002380F825301030266814F0FEF8A8
:1033B000337A003018BF012060F3C30333728349AE
:1033C00012A807F025FF12A9814807F0B2FC12A845
:1033D00007F072FE23687E48197A0A22C1F3C00101
:1033E00007F014FD01237B4890F82520EAB1002363
:1033F00080F825301030266814F0D8F8337A7649F2
:1034000060F34713337212A807F002FF12A9704845
:1034100007F08FFC12A807F04FFE23686C48197A5A
:103420000A22490907F008FD01236C4890F825207D
:10343000F2B1002380F825301030266814F0B6F879
:10344000B37A674960F30203B37212A807F0E0FE93
:1034500012A95F4807F06DFC12A807F02DFE236843
:103460005B48997A0A2201F0070107F0E5FC012385
:103470005C4890F82520F2B1002380F82530103008
:10348000266814F093F8B37A574960F3C503B37212
:1034900012A807F0BDFE12A94D4807F04AFC12A879
:1034A00007F00AFE23684A48997A0A22C1F3C2014A
:1034B00007F0C2FC01234D4890F825200AB30023F1
:1034C00080F825301030266814F070F8737A0030D8
:1034D00018BF012060F386137372454912A807F0E4
:1034E00097FE12A93A4807F024FC12A807F0E4FD61
:1034F00023683748597A0A22C1F3801107F086FC05
:1035000001233C4890F8252002B3002380F82530A1
:103510001030266814F04AF8737A003018BF012082
:1035200060F3C7137372344912A807F071FE12A931
:10353000274807F0FEFB12A807F0BEFD23682448C9
:10354000597A0A22C90907F061FC01232B4890F837
:103550002520CAB1002380F825301030266814F0E9
:1035600025F82749F07212A807F052FE12A9184850
:1035700007F0DFFB12A807F09FFD23680A22D97A23
:10358000134807F059FC00E063B12B68D3F8AC3066
:1035900098472B685B6F0BB19B699847FFF7A2F9BF
:1035A000FFF734FCD8F80030FA5C0A2A01D0F92B76
:1035B00003D10023C8F8003051E4124A01331360EC
:1035C0004DE422B0BDE8F087981E0020F2AD010066
:1035D000742A00202821002002AE0100942100203E
:1035E00011AE0100281E002021AE01002420002081
:1035F00031AE0100642200203CAE010058200020C2
:1036000047AE01009021002008B5FFF725FCFFF729
:103610003DFA034B1B680BB19B68984708BD00BF80
:10362000901E0020014BFF221A6070475C050020AD
:10363000704770477047000038B5184C2368FF2B5F
:103640002AD0FFF799F80546FFF79CF8014628466F
:10365000FDF7AAFC50B1207807F054F901281BD0DF
:1036600020780121BDE8384007F05EB907F0D4F8B2
:103670000B4D2B68C01AB0F5967F0DD924782046E3
:1036800007F040F9D0F1010138BF0021204607F0D2
:103690004BF907F0C1F8286038BD00BF5C05002079
:1036A0009C220020034B1B681878031F5842584186
:1036B000704700BF202500207047704704F00ABE05
:1036C00010B5084C237833B90748084904F0B7FB14
:1036D00008B901232370064B187810B100221A7024
:1036E000012010BDA02200204023002069370000E7
:1036F00068230020134A144B10B51A60134A144B68
:10370000144C1A60144A154B1A60236804225A702C
:1037100003F0C2F91248002104F08EFB23681A79E5
:103720004AB95B78042B06D00E4B187B43B20F2BA3
:10373000A8BF0E2000E0F62040B2BDE8104004F023
:10374000C7BC00BF2CB30100600500202158000059
:1037500000230020981C002011570000FC220020AC
:1037600040230020C4220020124B37B5002204461B
:103770001A70E1B900F11505284601A903F0AEF968
:10378000431C14D0012803D0022810D1222200E0CB
:10379000122209482946FDF753FF227A074B1A7077
:1037A000074B1A6801321A60064B01221A7003B0E7
:1037B00030BD00BFA0220020D42200201023002012
:1037C0003C2300206823002001700239082944D8D6
:1037D000DFE801F0050B1119212931333B00234BA0
:1037E0004360234B836041232CE0224B4360204BFA
:1037F0008360182326E0204B4360204B8360012325
:1038000043700A2330E01E4B43601C4B836001234E
:103810004370142328E01B4B4360184B8360012343
:103820004370112320E0184B4360144B8360012345
:1038300043701B2318E0154B00E0154B43600F4B02
:103840008360012343701E230EE0124B43600B4B39
:10385000836001234370172306E00F4B4360074B3F
:103860008360022343700E2303737047C07AC6350A
:10387000801A0600404FA836D0B3CF33400D030066
:1038800000D6C8332028051C08E6D333801C9E339D
:10389000401A9C36A0D1E33640AEBF33C0EBC030F7
:1038A000013880EA103000EB800040F6090380EA1E
:1038B0001010584380EA104070470000F0B50C46E5
:1038C00087B014491746054607F038FC2744BC4228
:1038D0001DD0114B14F8016B0E4903A80F2E98BF91
:1038E000194607F02BFC10223146684607F05CFCB5
:1038F000694603A807F0C1FC0146284607F0A9FC69
:10390000684607F0D9FB03A807F0D6FBDFE7284697
:1039100007B0F0BD4AB10100D0AE0100F0B5344CA3
:1039200085B02368C3B9FFF7BDFE08B1314B2360F2
:10393000216831B10131304807F003FA01A82F495D
:1039400001E02F4901A807F063FC2B4801A907F00B
:103950000DFA01A807F0B0FB2A4A136815469978BA
:1039600039B9226842B15B78022B05D1264807217C
:1039700000E02548FFF728FF2068002836D00369BB
:1039800098472B685B78013BDBB2042B96BF1F4A3C
:103990001F4A52F823201F4B92F82810908D19705F
:1039A0001D4B1E49D58D0B60D18C568E178E1981FB
:1039B000518D928E9D81921B7D1BADB292B219806A
:1039C00001444910DA822A44588092B288B2824275
:1039D00098809E82DD8105D88A1A022092FBF0F23F
:1039E00092B200E00022DA802368187805B0F0BDBA
:1039F0000823002098AE0100742A0020D2AE0100F6
:103A0000E5AE0100981C0020C4220020BCAE0100DD
:103A100084B2010004230020A42200200C230020F3
:103A20002DE9F7437C4BDFF818921A689846127814
:103A3000042A0AD101F08CFF99F800300546012BC9
:103A400008BF002389F8003081E0744B744D1B6877
:103A5000D3F898309847044606F0DEFE07465CB37C
:103A600095F84C3023B106F0D7FEAE6D801B01E017
:103A70004FF0FF303E1AB4424FF47A7305D8361B2C
:103A8000B6FBF3F203FB126606E0A61BB6FBF3F2ED
:103A900003FB1266C6F57A763A1B40F2F2339A427D
:103AA0001CD94FF47A73B4FBF3F203FB1244B7FB57
:103AB000F3F703FB074411E095F83C3023B106F01F
:103AC000ABFEAC6C001B01E04FF0FF30554B3C1AD5
:103AD0001B680BB15E8A00E06426A41B524802F00A
:103AE000F3FC6328CCBFA0F2B2701E308DF8060044
:103AF0004D4802F0F5FC8DF805004B4802F0FCFC47
:103B00008DF80400494802F001FD8DF80200474895
:103B100002F006FD8DF80100444802F00FFD02ABF3
:103B200003F8080D684601F09DFE95F84C300746F5
:103B30002BB106F071FE3A4B9B6DC01A01E04FF0BD
:103B4000FF30851B4FF47A72B5FBF2F53D4499F8CE
:103B50000030012B1AD106F05FFE354B1B68196946
:103B60009A88411A914206D39E89D988711A2144B4
:103B70001961002119779969401A904204D39A8AF1
:103B8000144401229C611A771F7F00E00027D8F8B7
:103B900000305E78731E5E425E41264B5C781A7878
:103BA000012C28D9012A23D94FEA450807EB080040
:103BB000FFF774FEB0FBF4F505FB1400C5B2E6B1E7
:103BC0007FB14046FFF76AFEB0FBF4F303FB14003D
:103BD000C3B2AB4213D1581CC0B2A04210D3581E7E
:103BE00004E0681CC0B2A0420AD3681EC0B207E05D
:103BF00087EA060004E0002002E0284600E01846BC
:103C00000D4B1B7823B10D4B1B680BB15B699847BB
:103C100003B0BDE8F08300BF981C002020250020E1
:103C2000001F0020901E00203C1F00204C1F002081
:103C30000C230020C4220020692300200823002038
:103C40000423002070B5234C2378002B3BD1224B5A
:103C50001B78002B35D1214E0021756B2846FDF7CE
:103C60007BF920B1B06B0021FDF776F958BBB06B42
:103C70001B49FCF7DDFFFDF7A1F91A4A00F53703F0
:103C800003F5D8539342064613D915492846FCF745
:103C9000CFFFFDF793F9144B98420CDC134B9E4277
:103CA0000BDD134B134903448B4294BF04210321C2
:103CB00004E0012102E0022100E003210648FFF7B1
:103CC00083FD0123237023781BB1BDE87040FFF70B
:103CD000A7BE70BD69230020C4220020C8160020A2
:103CE000007C1249006CDC02FF1AB7000077DD058A
:103CF000FF73B7017ECBA40038B50D4B05461B788A
:103D00000BB9002038BD0B4C2368002BF9D00A4BAF
:103D10001B681B79022BF4D006F07EFD074B1B6855
:103D20009842EED9236829460548984738BD00BF18
:103D30006923002000230020981C00203823002045
:103D40001423002008B5044B187820B1034B1868E1
:103D500008B18369984708BD692300200823002023
:103D600008B5034B1B680BB11B6A984708BD00BF21
:103D70000823002005280FD8DFE800F00305070E10
:103D80000B09064B06E0064B04E0064B02E0064B2F
:103D900000E0064B587F70470020704784B2010056
:103DA000BCB20100F4B201004CB201002CB301001E
:103DB0002DE9FF414F4B1B780BB9002097E04E4B8C
:103DC0001A681F46002AF8D00028F6D04B4E4C4CFB
:103DD000336820601B79022B64D04A4D21B106F074
:103DE0001BFD2A689042E8D901F0B2FD46498046A1
:103DF0002268464813F04EFC002855D03B68DB692A
:103E0000984733681B7A9A072BD5414901A807F0D8
:103E1000FFF901A93F4806F08CFF01A807F04CF913
:103E20000A2241463B4806F0FBFF3B4901A807F048
:103E3000EFF901A9374806F07CFF01A807F03CF92B
:103E40002E4B1B685878FFF795FF3049024601A8B2
:103E5000FFF734FD2F4801A906F088FF01A807F0FD
:103E60002BF92E4B1A6801321A60002323602C4B69
:103E70002C4C1B782C4E012B2BD12C4B22685B78C1
:103E8000012B21D10C322368187F00B1D8885168EA
:103E90009C8836680C4451881A89F36B891A9847B4
:103EA00020442860012022E033681B7A9B07DCD580
:103EB00001A81F4907F0ACF901A9164806F056FF02
:103EC00001A807F0F9F8D0E7137F012BDAD01432FC
:103ED000D9E706F0A1FC236832680746598818889C
:103EE000D26B904723681B89FF1A3844D9E704B086
:103EF000BDE8F0816923002008230020981C0020E1
:103F00006423002038230020D42200201423002022
:103F100013AF0100742A002067AB0100F8220020D3
:103F2000042300200C23002020250020C422002090
:103F30001BAF0100014803F06DBF00BF402300200C
:103F4000704701207047704770477047704770474F
:103F5000704700000E4B5A799979120442EA012207
:103F6000D97918790A4342EA0060A2F55D02B2F5F8
:103F7000403F02D200F58010704700F47F03B3F594
:103F8000B60F02D0B3F5881F01D100F5803070471D
:103F90009C23002000487047702300207047704722
:103FA000704770470020704770477047014B0322ED
:103FB0001A60704700500940014B1868704700BFF5
:103FC000941E002001207047704770477047000022
:103FD00008B506F021FC014B186008BD941E0020B6
:103FE000014804F094BB00BFA82300200A20002150
:103FF00006F06ABC10B50C4C0A20022106F064FCE5
:104000000122002320460A2104F020FAE368074A2F
:104010005A601A8942F015021A814FF416725A82B8
:104020004FF4FA62DA8210BDA82300206542000036
:104030000146014806F02CBD742A0020011C18BF5F
:104040000121014801F036BD8C23002001460148C2
:1040500001F000BD8C2300200148FF2106F076BF4F
:10406000D82B002008B50146024802F07FFC012051
:1040700008BD00BF8025002007F014B81FB5002040
:1040800001A90FF0C9FA029805B05DF804FB000021
:104090000F4B10B51B680446062B13D8DFE803F05E
:1040A0000406080A0C0E10000A490CE00A490AE04E
:1040B0000A4908E00A4906E00A4904E00A4902E020
:1040C0000A4900E00A4907F0A3F8204610BD00BFE6
:1040D0007023002018B001002FB0010020B00100B3
:1040E0002AB0010033B0010040B0010051B001001E
:1040F00059B0010010B50349044607F089F820467D
:1041000010BD00BF61B0010008B50FF0A2FD024B69
:1041100001221A60FEE700BFFC002043024B002092
:10412000186001460BF07AB80050094008B510F04D
:1041300051FD01380F4B07280DD8DFE800F00406C9
:104140000C060608080A062206E0012204E0042202
:1041500002E0052200E0002207481A6004F0E8F8B7
:10416000064B00225A7006484FF41641BDE808403D
:1041700006F0DEBC702300209C23002020050020D8
:10418000742A0020D0B90E4B1B681A7802B118703F
:104190001A7A510903D0012161F347121A729A7AEF
:1041A000510703D0012161F302029A729A7A12F048
:1041B000380F03D0012161F3C5029A72704700BF26
:1041C000981C0020022870B509D0032831D001289E
:1041D0000BD11B4B1B780B2B2DD11A4870BD184BE4
:1041E0001B780B2B29D1184870BD184A136813F09F
:1041F000010F174B04D001211160043A12681A60B4
:104200001E68C6F30220FCF75DF80446F0B20D46C6
:10421000FCF7B6FCFCF778F800220E4BFCF7C8F868
:1042200002460B4620462946FBF710FFFCF7A2FB8F
:1042300070BD094870BD094870BD094870BD00BF18
:1042400020050020000040409A9939402C50094038
:10425000A42300200000703F0000C8423333134005
:1042600066660640042905D1034B984202D1062018
:10427000FDF73ABB704700BFA823002010B5084CDB
:10428000204601F0DDFB20460649074A10F0CEFC2F
:10429000BDE8104005480A210122002304F0E2B8DD
:1042A0008C230020A15A00000C0B0020A823002022
:1042B0007FB5854806F04EFD01A8844906F0A8FFA9
:1042C000834C01A9804806F034FD01A806F0F4FEF5
:1042D000804A814B217801A80B2914BF1146194649
:1042E00006F096FF01A9784806F023FD01A806F024
:1042F000E3FE01A8794906F08BFF01A9724806F098
:1043000035FD01A806F0D8FE6F4806F023FD6E4883
:1043100006F01EFB01A8724906F07AFF01A96A485F
:1043200006F024FD01A806F0C7FE01A86D4906F0BD
:104330006FFF01A9644806F0FCFC01A806F0BCFE72
:10434000694D6A4BE17801A8042914BF1946294632
:1043500006F05EFF01A95C4806F008FD01A806F022
:10436000ABFE01A8624906F053FF01A9564806F0CA
:10437000E0FC01A806F0A0FE5E4E217901A800290C
:104380000CBF3146294606F043FF01A94E4806F00E
:10439000EDFC01A806F090FE01A8574906F038FF91
:1043A00001A9494806F0C5FC01A806F085FE61791F
:1043B00001A800290CBF3146294606F029FF01A9B2
:1043C000414806F0D3FC01A806F076FE3E4806F010
:1043D000C1FC01A8494906F01BFF01A93A4806F0B3
:1043E000C5FC01A806F068FE374806F0B3FC364865
:1043F00006F0AEFA01A8424906F00AFF01A93248C8
:1044000006F0B4FC01A806F057FE01A83D4906F0ED
:10441000FFFE3D4C01A92C4806F08BFC01A806F0DC
:104420004BFE236801A81B7A5B09012B0CBF37499F
:10443000374906F0EDFE01A9234806F097FC01A8D4
:1044400006F03AFE01A8334906F0E2FE01A91E4833
:1044500006F06FFC01A806F02FFE236801A89B7AE6
:1044600003F00703012B0CBF2849294906F0D0FEB1
:1044700001A9154806F07AFC01A806F01DFE01A866
:10448000254906F0C5FE01A90F4806F052FC01A817
:1044900006F012FE236801A89B7AC3F3C203012B26
:1044A0000CBF1A491A4906F0B3FE01A9064806F0E6
:1044B0005DFC01A806F000FE034806F04BFC024834
:1044C00006F046FA04B070BD742A002092B00100D4
:1044D0002005002050AF010080B001009AB001001B
:1044E000B6B00100C2B0010084B0010089B0010083
:1044F000CDB001008EB00100D8B00100E3B00100E2
:1045000003B101001AB10100981C002024B1010080
:1045100029B101002EB1010038B1010000000000F6
:104520002DE9F04F9DB021490CA806F007FE01F0DF
:104530000FFA1F4B09901A689B46927A12F0380FB7
:1045400005D10CA806F0B8FD1DB0BDE8F08FDFF86E
:104550006CA0DAF82C70002F00F0FC81DAF824301F
:10456000099AD31A052B00F3F581DAF8680011498E
:10457000FCF7FCFC002800F0ED81DAF84040002157
:104580002046FCF7E9FCE8B10B4C0021256C2846DD
:10459000FCF7E2FCA0B9E16B2846FCF73FFADAF839
:1045A0003C10FCF73DFA04460CE000BF4AB10100A4
:1045B000981C002000401C46C81600205017002000
:1045C000DAF83C402046FBF79FFEB3A3D3E9002373
:1045D000FBF7EEFEFCF7CEF9FBF796FE0446DAF8A1
:1045E00034000D46FBF790FECDE90001DAF8380003
:1045F000FBF78AFE4FF0000818AECDE902013A46FB
:1046000030460B21CDE90445CDF81880CDF81C804B
:1046100004F0E0FD0CA8A44906F0B5FD4746A34B05
:1046200016F80780A24915A8B8F10F0F98BF1946D0
:1046300006F084FD1022414612A806F0B5FD12A92D
:1046400015A806F01AFE01460CA806F002FE12A8F4
:1046500006F032FD013715A806F02EFD0E2FDED133
:1046600094490CA806F0FAFDDAF83400FBF74CFE8A
:10467000CDE90001DAF83800FBF746FE00270123F8
:10468000CDE90201CDE904450693079730460B2199
:10469000DAF82C2004F09EFD16F80780844D834C38
:1046A00015A8B8F10F0F8CBF2946214606F046FD2C
:1046B0001022414612A806F077FD12A915A806F0AF
:1046C000DCFD01460CA806F0C4FD12A806F0F4FCBF
:1046D000013715A806F0F0FC0E2FDDD175490CA8A6
:1046E00006F0BCFD744B9AF828200FA853F822104E
:1046F00006F024FD9AF82E1015A80F298CBF294624
:10470000214606F01BFD10229AF82E1012A806F082
:104710005CFD12A915A806F0B0FD01460FA806F031
:1047200098FD12A806F0C8FC15A806F0C5FC9AF87A
:104730002D1015A80F298CBF2946214606F0FEFC36
:1047400010229AF82D1012A806F03FFD12A915A804
:1047500006F093FD01460FA806F07BFD12A806F0B7
:10476000ABFC15A806F0A8FC9AF82C1015A80F2988
:104770008CBF2946214606F0E1FC10229AF82C1045
:1047800012A806F022FD12A915A806F076FD014632
:104790000FA806F05EFD12A806F08EFC15A806F024
:1047A0008BFC0FA806F076FD9AF84C3000240F2BF6
:1047B00096BF42480023C35CDAF82C1000930F9A8E
:1047C00001943046012304F0A5FD384B355D38498E
:1047D00015A80F2D98BF194606F0B0FC10222946E7
:1047E00012A806F0E1FC12A915A806F046FD014644
:1047F0000CA806F02EFD12A806F05EFC013415A8E8
:1048000006F05AFC0E2CE0D12A490CA806F026FD31
:10481000DAF84800FBF778FD0446DAF844000D4664
:10482000FBF772FD1EA3D3E90023FBF7C1FD0022B5
:10483000234BFBF7E7FE8046894610F0FDF906465C
:104840000F464046494610F0CBFA3246CDE90A0100
:104850003B4620462946FBF7ABFDDDE90A23064629
:104860000F4620462946FBF7A3FDCDE90001DAF803
:104870005000FBF749FD0DF160080024CDE902016D
:1048800004944046DAF82C1032463B4604F0BCFD56
:10489000064B18F8045015E0984B4FFD283F0A408E
:1048A000182D4454FB21094045B10100D0AE010050
:1048B0004AB1010042B10100640500204BB1010082
:1048C00000806640274915A80F2D98BF194606F0AD
:1048D00035FC1022294612A806F066FC12A915A87C
:1048E00006F0CBFC01460CA806F0B3FC12A806F0BB
:1048F000E3FB013415A806F0DFFB0E2CC8D10CA891
:1049000006F0C8FC18490CA806F0A8FCDBF800303B
:104910000C999B7A0E9AC3F3C203042B0BD0052B80
:104920000DD0012B13D1114B1B68DB6F5BB9104805
:1049300006F02EF90BE00D4B1B689B6F02E00B4B52
:104940001B685B6F1BB108465B6A114698470FA84E
:1049500006F0B2FB074B0AF17C0A9A457FF4F9ADE9
:10496000EFE500BF4AB1010047B10100202500205A
:10497000742A0020301B0020C2B2C0F3074343EA70
:10498000024300F47F4018437047034670B500208F
:104990000E461946154602F06BF80024AC4204DAC4
:1049A000315D02F065F80134F8E770BD10B50A44D6
:1049B000914213D011F8013BA3F17D04012C02D9DF
:1049C00003700130F4E703467D2403F8024B11F82D
:1049D000014C84F0200444701846E9E710BD000043
:1049E0002DE9F04F0C6C8DB080460D46204600211D
:1049F000FCF7B2FA08B920460FE0814C0021266C82
:104A00003046FCF7A9FA38B9E16B3046FCF706F8F6
:104A1000E96BFCF705F800E0E86BFBF775FC74A3A5
:104A2000D3E90023FBF7C4FCFBF75CFF192300F577
:104A30007A76686C96FBF3F6FBF766FC0022714B06
:104A4000FBF7E0FDFBF74EFF002E019005DB40F683
:104A5000FE739E42A8BF1E4600E00026A86CFCF72D
:104A6000D3FA87B2286DFBF74FFC0022664BFBF7A9
:104A70009FFCFBF737FF654C1FFA80FA2378E86A42
:104A800003F00F036FF303032370FFF775FFD5F8EF
:104A900034B0C0F307236070C0F30740E070A37028
:104AA00058465B491FFA8AF9FCF77EFA38B958462E
:104AB0005849FCF75BFA20B1DFF858B101E0DFF8A4
:104AC00050B15846FBF720FC4BA3D3E90023FBF77A
:104AD0006FFCFBF707FF0028B8BF20F07F40FFF70F
:104AE0004BFFD5F838B0C0F307232071C0F307405F
:104AF000A071637158464849FCF756FA38B95846D0
:104B00004649FCF733FA20B1DFF810B101E0DFF8D5
:104B100008B15846FBF7F8FB37A3D3E90023FBF7AE
:104B200047FCFBF7DFFE0028B8BF20F07F40FFF70F
:104B300023FFC0F3072323723311E27A43F4106397
:104B40009BB2A37222F00F02C3F30323134366F355
:104B50000713E372237B082262F3071362F3030354
:104B600023730AF4706AC7F3031343EA0A0A3B0982
:104B700003F0F0034AEA030A84F80DA02AFA02FAC5
:104B80004FEA0913DBB207F00F071F43C9F30319FC
:104B900047EA092909F00F034AEA031A019BE07169
:104BA000237495F84C30C0F307400F2B98BF1C4A74
:104BB00005F1720698BFD35C607288BF00234FEA8C
:104BC00019193046082184F80EA084F80F906374F8
:104BD00013F00EF80D4F07F1120A18B3D5F8723022
:104BE000C7F81230D5F87630CAF8043097E000BF25
:104BF000984B4FFD283F0A40176CC1166CC1E64028
:104C0000C81600200080F63F0000903FC22300201D
:104C10000000B4420000B4C200003443000034C3BA
:104C20004BB1010095F82830DFF850914F4F59F8FB
:104C30002360304612F030FF314602465046FCF702
:104C4000FFFC4A4903A806F079FA494E95F82E1060
:104C500009A80F298CBF3946314606F06FFA102299
:104C600095F82E1006A806F0B0FA06A909A806F0D5
:104C700004FB014603A806F0ECFA06A806F01CFAAD
:104C800009A806F019FA95F82D1009A80F298CBF6C
:104C90003946314606F052FA102295F82D1006A832
:104CA00006F093FA06A909A806F0E7FA014603A858
:104CB00006F0CFFA06A806F0FFF909A806F0FCF9FD
:104CC00095F82C1009A80F298CBF3946314606F0FB
:104CD00035FA102295F82C1006A806F076FA06A9E7
:104CE00009A806F0CAFA014603A806F0B2FA06A817
:104CF00006F0E2F909A806F0DFF903A806F0CAFAFF
:104D000095F8283059F8230012F0C6FE20441230DE
:104D10000399059AFCF794FC03A806F0CDF9A37E4D
:104D200040466FF3071313491B22A376FFF72DFEAE
:104D3000114C8DF818007E25000A8DF8240025708E
:104D400084F80180A01C0B491B22FFF72FFE06A947
:104D50000122FFF72BFE09A90122FFF727FE00F829
:104D6000015B001B0DB0BDE8F08F00BF4AB1010030
:104D7000D0AE0100C22300206A2300206405002079
:104D800008B5024600282AD0154B1B689B7A03F011
:104D90000703013B042B22D8DFE803F0030D2115A4
:104DA0001900104B1B68DB6FABB90F480F49BDE80A
:104DB000084005F0EDBE0B4B4FF47A601B680B49C1
:104DC0001B6D984708BD074B1B689B6F02E0054BA6
:104DD0001B685B6F1BB15B6A04481146984708BDAE
:104DE000981C002020250020742A00206A2300201F
:104DF0002DE9F34100F0ACFD694B80461B689B7ABE
:104E00005B0700F0C68000F0A3FD664B664DB0FB6B
:104E1000F3F404FB1304FDF703FE2B78221460F374
:104E2000C71303F0830343F001032B706B78002753
:104E300062F3C71303F09F036FF3000329460622B2
:104E400038466B706C802F716F71FFF79EFD574C69
:104E50007E268DF80600000A8DF8070029460622F6
:104E600026706770A01CFFF7A1FD0DF1060101225D
:104E7000FFF79CFD0DF107010122FFF797FD00F8F8
:104E8000016B001BFFF77CFF494926226520FFF7D5
:104E90007CFD65238DF80600000A63708DF807001D
:104EA000434926222670A01CFFF780FD0DF1060164
:104EB0000122FFF77BFD0DF107010122FFF776FDCF
:104EC00000F8016B001BFFF75BFFFDF7A9FD002851
:104ED0005FD0384D0A202946FFF782FDFFF750FFCB
:104EE000296EE86BFBF79CFDFBF70EFA2AA3D3E9CA
:104EF0000023FBF75DFA00222F4BFBF783FBFBF748
:104F0000F1FC2E4D80B2030A43EA0020EB782880A2
:104F100023F07F0343F00A0367F3C71329460422F3
:104F20000B20EB70AF70FFF730FD0B238DF8060000
:104F3000000A637029468DF807002670A01C042221
:104F4000FFF734FD0DF106010122FFF72FFD0DF1F2
:104F500007010122FFF72AFD00F8016B001BFFF794
:104F60000FFF174C04F57875E36A7BB1636AC3EBF6
:104F70000803052B0ADCA06E1249FBF7F7FF28B1E6
:104F800021461420FFF72CFDFFF7FAFE7C34AC42DB
:104F9000EAD102B0BDE8F081984B4FFD283F0A40AE
:104FA000981C002080510100BC2300206A230020AF
:104FB0005BB10100C816002000001440B823002097
:104FC0005017002000401C4670B504460D4612F0F4
:104FD00063FD01220023411E8A4203D2A15C0132FB
:104FE0004B40F8E720442946024ABDE8704012F0E1
:104FF00087BC00BFA3B1010008B505F00DFC014B53
:10500000186008BD682400207047000073B501389F
:1050100014461D46042850D8DFE800F0031C4F3426
:105020004000274E3368DB6F43B108465B6A114688
:105030009847002D41D03368DB6F3AE0214805F0F6
:10504000A7FD002D39D01F480A2102B0BDE87040ED
:1050500005F085BCB2F5807F1B4B28BFFF241846A6
:105060002246FCF7EDFA0DB10A220255144B1B68DB
:105070001B6D0DB1621C00E0224642F27E701249A7
:1050800098471AE00E4E33689B6FB3B108465B6ACF
:10509000114698478DB133689B6F0AE0084E33681C
:1050A0005B6F53B108465B6A114698472DB1336870
:1050B0005B6F5B6A05480121984702B070BD00BF75
:1050C00020250020742A00206A23002049B1010015
:1050D000F8B5254D2B681B7A1B073DD5234E0021C3
:1050E000306CFBF739FF0446002835D105F094FBFE
:1050F0001F4F3B68C01AB0F57A7F2DD9306CFBF793
:1051000003F917A3D3E90023FBF752F9FBF7EAFBF6
:105110004EF66026174BB042B8BF0646164A9E426E
:10512000A8BF33468021154812F0EAFB134812F05D
:10513000B3FCC0F180011148FFF746FF0F4812F0A1
:10514000ABFC2B680246187A0C4940092346FFF74E
:105150005DFF05F061FB3860F8BD00BFAFF3008074
:10516000984B4FFD283F0A40981C0020C81600208D
:105170006824002018FCFFFFAAB10100E8230020EA
:105180002DE9F04FA3B000F0E3FB1390FDF748FCCE
:1051900068B14FF00009DFF850814FF09E4BCDF819
:1051A0003090CDF83C90CDF83890CA460DE04A4B8F
:1051B0001B681B78042BECD0074681464FF09E4BB2
:1051C0000C900F900E9082469BE158F8463C002BC5
:1051D00000F0908158F84E3C1399CB1A052B00F340
:1051E00089813D4B1B681B7A5A0740F1838158F82F
:1051F0000A2C3A4910460D92FBF7B8FE002800F041
:10520000798100231793189318F8423C58F8060C3C
:10521000032B28BF03231493FBF7D0FE304C18F95F
:10522000023C1190E16B58F8360C1293FBF7F6FB39
:10523000FBF7C4FE18F81E3C0AF1010A10905BBB94
:1052400094F8543043BB58F8220CFBF75DF81CA3CC
:10525000D3E90023FBF7D6F91BA3D3E900230446C7
:105260000D46FBF717FB58B92046294618A3D3E98A
:105270000023FBF72DFB38B115A1D1E9000105E0B2
:1052800011A1D1E9000101E02046294617AB0093A6
:105290000522012304F080F9124C002120460B2244
:1052A00012F08EFA4046082112F0A2FCF0B1D8F8B4
:1052B00000302360D8F80430636092E0AFF30080E0
:1052C000DE567A6D369B68409A999999995940C0F3
:1052D0009A99999999594040981C002000401C4681
:1052E000C8160020DD230020C217002018F84A3C11
:1052F000A54FA64E57F82350284612F0CDFB29465D
:1053000002462046FCF79CF9A14919A805F016FFB2
:10531000A04D18F8441C1FA80F298CBF3146294600
:1053200005F00CFF102218F8441C1CA805F04DFFD6
:105330001CA91FA805F0A1FF014619A805F089FFC7
:105340001CA805F0B9FE1FA805F0B6FE18F8451C0C
:105350001FA80F298CBF3146294605F0EFFE102209
:1053600018F8451C1CA805F030FF1CA91FA805F063
:1053700084FF014619A805F06CFF1CA805F09CFEEF
:105380001FA805F099FE18F8461C1FA80F298CBF0E
:105390003146294605F0D2FE102218F8461C1CA8FA
:1053A00005F013FF1CA91FA805F067FF014619A807
:1053B00005F04FFF1CA805F07FFE1FA805F07CFE3E
:1053C00019A805F067FF18F84A3C57F8230012F0B7
:1053D00063FB199920441B9AFCF732F919A805F0D0
:1053E0006BFE0D98FAF790FF044611980D46FAF7F8
:1053F00079FF5FA3D3E90023FAF7DAFF06460F46E9
:105400000FF01AFC02460B4620462946FAF7D0FF59
:10541000FBF768FA3946159030460FF0E1FC02467A
:105420000B4620462946FAF7C3FFFBF75BFA044612
:1054300058F82E0CFBF7C2FD064658F82A0CFAF76E
:1054400063FF4DA3D3E90023FAF7B2FFFBF74AFA53
:1054500058F8465C02460DF15B0358785F1C002843
:105460002FD11599109B8DE81200029314994A4B85
:1054700003910792049505930696089718F8263C21
:10548000464A802109934648129B12F039FA444853
:1054900012F002FBC0F180014148FFF795FD404842
:1054A00012F0FAFA3F4B02461B683D49187A002376
:1054B0004009FFF7ABFD0D985946FBF757FD40B982
:1054C00018E00B9212F092F80B9A0028C9D03B46D4
:1054D000C3E7109B03F2F31240F2E6339A4209D875
:1054E0001299109A119B58F8469CDDF834B00C9133
:1054F0000F920E932C4908F17C0888457FF465AE25
:105500000127284C23681B7A5B0740F1C280FDF716
:1055100033F90646FAF7F8FE19A3D3E90023FBF79F
:10552000D7F970B1FDF72EF9014630464FF001086A
:10553000FBF71CFD00B9804688F001085FFA88F887
:1055400001E04FF00108194DBAF1000F52D00E984A
:10555000FBF71AFB696CFBF761FAFBF72FFD10F103
:10556000B40F27DB124AB528B8BF002224E000BFE1
:10557000399D52A246DF913FCF16AD2F5476E03FC2
:10558000CDCCCCCCCCCCFC3F7C0500204AB101007A
:10559000B9B10100D0AE0100DD230020BBB1010094
:1055A000E8230020981C0020A21B0020C816002021
:1055B00098FEFFFF4FF4B47223680C991B791044D6
:1055C000023B18BF01230F9A009304900223584610
:1055D0000193039105930692CDF80880FBF7EEFC4A
:1055E000CDF82090079080212B4A53462B4812F08B
:1055F00087F912E037B1236802221B79023B18BFFA
:10560000012301E03B463A460C998DE804010291E2
:1056100022488021224A12F073F9204812F03CFA05
:10562000C0F180011D48FFF7CFFC1C4812F034FA8E
:1056300023680246187A194940090023FFF7E6FC5F
:10564000236818495B7830460093174B1B68019319
:10565000164B1B680293FBF7EBFAFBF7AFFC0390CA
:10566000134AEB6A80210D4812F04AF90B4812F0F8
:1056700013FAC0F180010948FFF7A6FC074812F0B1
:105680000BFA23680246187A044940090023FFF701
:10569000BDFC23B0BDE8F08FE7B10100E823002096
:1056A0000FB201000000C8423C230020F822002075
:1056B0002BB20100AFF30080124A01210023517187
:1056C00091714FF48041D361137053709370D37212
:1056D000137353731371D371137253729372D38113
:1056E00013825382136291849361D3829382D36233
:1056F000D384054A136053609360D36013611377BA
:10570000D37770476C2400209C2400200000000008
:105710002DE9F0413E4D0E462946144601F090FC1D
:10572000D5E90201042384F828306B68E362FBF7B3
:1057300021F96063D5E90401FBF71CF92B7EA06316
:10574000012B0CD0022B24D1E869FAF7CBFD2EA354
:10575000D3E90023FAF756FFFBF70CF918E0E869E4
:10576000FAF7C0FD28A3D3E90023FAF74BFFFBF7B4
:1057700001F92064376C804600213846FBF7ECFBCA
:1057800038B939464046FBF749F9F16BFBF748F960
:10579000E06395F84230288D0F2B96BF1D4A0023F9
:1057A000D35C84F84C30FBF7EBF96064688DFBF751
:1057B000E7F9A064B5F92E00FBF7E6F9716A00235A
:1057C0000122A4F8643084F8543084F8553084F809
:1057D000563084F8573084F8583084F8593084F8BB
:1057E0005A3084F85B3084F85C3084F85D300A4BC2
:1057F00084F830206162206503CBC4F87200C4F8DD
:1058000076101046BDE8F081984B4FFD283F0A40C6
:10581000C024002093B1010004250020AFF30080D4
:105820000020704770477047054A064B10B513605B
:105830005B69144603B19847206800B1007810BD39
:105840002025002058AF010008B5034B1B6813B199
:105850001B6A03B1984708BD202500207047704798
:1058600070477047F0B52A4B817940F2B2724B43D2
:10587000A2F2B2748C4214DA940710D1642492FB21
:10588000F4F504FB152434B94FF4C87492FBF4F515
:1058900004FB15241CB903F5A83303F5C0730132CA
:1058A000E6E701F2B271642291FBF2F502FB1515F5
:1058B0004FF4C87291FBF2F6447902FB16160122EE
:1058C000A24214DA022A08D18F0706D105B926B9F7
:1058D00003F5181303F56E5307E00E4FDFF838C0D9
:1058E000174417F8017C0CFB07330132E8E74278D4
:1058F0003C21514384784FF4616202FB0412017829
:1059000000790A440449013801FB00201844F0BD25
:105910008033E10164B301008051010008B5074BF9
:1059200002221860064B1B681844064B1860064B91
:105930001A7004F071FF054B186008BD2C2500207B
:10594000940500203C25002030250020382500202B
:1059500038B504F061FF144A144C1368C01AB0F54E
:105960007A7F06D3216803F57A73013121601360D1
:10597000EFE70F4D23682A689A4212D80D4B1B6837
:105980007BB1984710B1FFF7C9FF0AE00A4B1A68CC
:10599000236813442B60094B1A78003218BF012288
:1059A0001A70206838BD00BF382500202C25002043
:1059B0003C250020342500209405002030250020BF
:1059C00070B5059C0546632C0848049ECCBFA4F224
:1059D000B2741E3484714671857003714170027017
:1059E000FFF740FFBDE87040FFF798BF2425002077
:1059F0004FF0FF307047704700F0BCB808B503683F
:105A00009B68984718B100F0C5F8C0B208BD4FF0C8
:105A1000FF3008BD08B5084600F0D0F8012008BDE9
:105A200008B5142000F068F8012000F06BF80120A0
:105A300000F06EF8BDE808400F2000F0D3B8000079
:105A4000002242604FF47A728260014A026070471D
:105A500078B3010010B50C4600F060F9064800F07C
:105A6000D5F9012000F07CFA204600F05FF8BDE88F
:105A70001040FFF7D5BF00BF90B3010008B500206C
:105A800000F046F800F04AF842F2107000F06CFAAC
:105A9000002000F04BF8BDE8084000F02DBA0000EF
:105AA00010B5034B04460360FFF7E8FF204610BD26
:105AB00078B3010009B1FFF7B3BF084600F028B87A
:105AC00008B50520012100F08BF9BDE8084006204B
:105AD000012100F085B910B50122134605200021EF
